P  CODE 00
P  UNITS CUST 0
P  arrayDim   N
317N/C              VIA        MD0118PA00X+000274Y+003114X0236Y0000R000S581032163
317N/C              VIA        MD0118PA00X+000996Y+003524X0236Y0000R000S581032163
317N/C              VIA        MD0118PA00X-000157Y+003114X0236Y0000R000S581032163
317N/C              VIA        MD0118PA00X+000285Y+003909X0236Y0000R000S581032163
317N/C              VIA        MD0118PA00X+000705Y+003114X0236Y0000R000S581032163
317N/C              VIA        MD0118PA00X+000717Y+003909X0236Y0000R000S581032163
317N/C              VIA        MD0118PA00X-000146Y+003909X0236Y0000R000S581032163
317/VCC_BAT         VIA        MD0118PA00X+010039Y+000886X0236Y0000R000S581032163
317/VCC_BAT         VIA        MD0118PA00X+010138Y+001673X0236Y0000R000S581032163
317/VCC_BAT         VIA        MD0118PA00X+010138Y+001280X0236Y0000R000S581032163
317GND              VIA        MD0118PA00X+007480Y+014272X0236Y0000R000S581032163
317GND              VIA        MD0118PA00X-008071Y+013976X0236Y0000R000S581032163
317GND              VIA        MD0118PA00X-011516Y+006299X0236Y0000R000S581032163
317GND              VIA        MD0118PA00X+001870Y+023425X0236Y0000R000S581032163
317GND              VIA        MD0118PA00X-002559Y+014173X0236Y0000R000S581032163
317GND              VIA        MD0118PA00X+013780Y+000492X0236Y0000R000S581032163
317GND              VIA        MD0118PA00X-001453Y+020862X0236Y0000R000S581032163
317GND              VIA        MD0118PA00X+006988Y+012795X0236Y0000R000S581032163
317GND              VIA        MD0118PA00X+000000Y+012992X0236Y0000R000S581032163
317GND              VIA        MD0118PA00X-001969Y+026094X0236Y0000R000S581032163
317GND              VIA        MD0118PA00X+015551Y+000295X0236Y0000R000S581032163
317GND              VIA        MD0118PA00X+014862Y+004429X0236Y0000R000S581032163
317GND              VIA        MD0118PA00X+002559Y+015059X0236Y0000R000S581032163
317GND              VIA        MD0118PA00X-002362Y+015354X0236Y0000R000S581032163
317GND              VIA        MD0118PA00X+009941Y+007579X0236Y0000R000S581032163
317GND              VIA        MD0118PA00X+000984Y+013878X0236Y0000R000S581032163
317GND              VIA        MD0118PA00X-002461Y+005217X0236Y0000R000S581032163
317GND              VIA        MD0118PA00X+006201Y+001280X0236Y0000R000S581032163
317GND              VIA        MD0118PA00X+000787Y+018602X0236Y0000R000S581032163
317GND              VIA        MD0118PA00X+003740Y+010236X0236Y0000R000S581032163
317GND              VIA        MD0118PA00X+002693Y+020783X0236Y0000R000S581032163
317GND              VIA        MD0118PA00X+011713Y+006496X0236Y0000R000S581032163
317GND              VIA        MD0118PA00X-012008Y+004429X0236Y0000R000S581032163
317GND              VIA        MD0118PA00X+006831Y+016102X0236Y0000R000S581032163
317GND              VIA        MD0118PA00X-006398Y+013386X0236Y0000R000S581032163
317GND              VIA        MD0118PA00X+003642Y+012274X0236Y0000R000S581032163
317GND              VIA        MD0118PA00X+001575Y+003248X0236Y0000R000S581032163
317GND              VIA        MD0118PA00X-000882Y+016315X0236Y0000R000S581032163
317GND              VIA        MD0118PA00X-010335Y+005020X0236Y0000R000S581032163
317GND              VIA        MD0118PA00X-000189Y+015685X0236Y0000R000S581032163
317GND              VIA        MD0118PA00X+001378Y+008071X0236Y0000R000S581032163
317GND              VIA        MD0118PA00X-007563Y+010354X0236Y0000R000S581032163
317GND              VIA        MD0118PA00X-001969Y+017417X0236Y0000R000S581032163
317GND              VIA        MD0118PA00X-001476Y+013976X0236Y0000R000S581032163
317GND              VIA        MD0118PA00X+009646Y+009843X0236Y0000R000S581032163
317GND              VIA        MD0118PA00X-009469Y+013953X0236Y0000R000S581032163
317GND              VIA        MD0118PA00X+011024Y+009252X0236Y0000R000S581032163
317GND              VIA        MD0118PA00X-005118Y+005413X0236Y0000R000S581032163
317GND              VIA        MD0118PA00X-006496Y+011555X0236Y0000R000S581032163
317GND              VIA        MD0118PA00X+011024Y+006594X0236Y0000R000S581032163
317GND              VIA        MD0118PA00X-011890Y+002598X0236Y0000R000S581032163
317GND              VIA        MD0118PA00X+000197Y+001280X0236Y0000R000S581032163
317GND              VIA        MD0118PA00X-006496Y+008933X0236Y0000R000S581032163
317GND              VIA        MD0118PA00X-007173Y+016220X0236Y0000R000S581032163
317GND              VIA        MD0118PA00X-010925Y+008071X0236Y0000R000S581032163
317GND              VIA        MD0118PA00X+001028Y+011878X0236Y0000R000S581032163
317GND              VIA        MD0118PA00X+015551Y+003248X0236Y0000R000S581032163
317GND              VIA        MD0118PA00X+002264Y+020177X0236Y0000R000S581032163
317GND              VIA        MD0118PA00X+000642Y+010988X0236Y0000R000S581032163
317GND              VIA        MD0118PA00X+005610Y+010039X0236Y0000R000S581032163
317GND              VIA        MD0118PA00X-014272Y+005315X0236Y0000R000S581032163
317GND              VIA        MD0118PA00X-009646Y+011909X0236Y0000R000S581032163
317GND              VIA        MD0118PA00X-003937Y+019488X0236Y0000R000S581032163
317GND              VIA        MD0118PA00X-006811Y+018858X0236Y0000R000S581032163
317GND              VIA        MD0118PA00X+006886Y+010898X0236Y0000R000S581032163
317GND              VIA        MD0118PA00X+010728Y+009941X0236Y0000R000S581032163
317GND              VIA        MD0118PA00X-011516Y+005413X0236Y0000R000S581032163
317GND              VIA        MD0118PA00X+003543Y+009055X0236Y0000R000S581032163
317GND              VIA        MD0118PA00X-001260Y+009764X0236Y0000R000S581032163
317GND              VIA        MD0118PA00X-007756Y+017087X0236Y0000R000S581032163
317GND              VIA        MD0118PA00X+011516Y+010433X0236Y0000R000S581032163
317GND              VIA        MD0118PA00X-005709Y+010728X0236Y0000R000S581032163
317GND              VIA        MD0118PA00X+013091Y+007480X0236Y0000R000S581032163
317GND              VIA        MD0118PA00X-005906Y+017409X0236Y0000R000S581032163
317GND              VIA        MD0118PA00X+001295Y+015382X0236Y0000R000S581032163
317GND              VIA        MD0118PA00X+002646Y+016094X0236Y0000R000S581032163
317GND              VIA        MD0118PA00X-012992Y+005512X0236Y0000R000S581032163
317GND              VIA        MD0118PA00X+003346Y+019685X0236Y0000R000S581032163
317GND              VIA        MD0118PA00X-006890Y+008465X0236Y0000R000S581032163
317GND              VIA        MD0118PA00X-014961Y+003937X0236Y0000R000S581032163
317GND              VIA        MD0118PA00X+008661Y+002362X0236Y0000R000S581032163
317GND              VIA        MD0118PA00X-004232Y+014370X0236Y0000R000S581032163
317GND              VIA        MD0118PA00X+002756Y+021457X0236Y0000R000S581032163
317GND              VIA        MD0118PA00X+010630Y+000984X0236Y0000R000S581032163
317GND              VIA        MD0118PA00X+001378Y+021457X0236Y0000R000S581032163
317GND              VIA        MD0118PA00X-000472Y+010236X0236Y0000R000S581032163
317GND              VIA        MD0118PA00X+012795Y+001575X0236Y0000R000S581032163
317GND              VIA        MD0118PA00X+003906Y+022091X0236Y0000R000S581032163
317GND              VIA        MD0118PA00X-016240Y+000295X0236Y0000R000S581032163
317GND              VIA        MD0118PA00X-003783Y+022236X0236Y0000R000S581032163
317GND              VIA        MD0118PA00X-000984Y+025000X0236Y0000R000S581032163
317GND              VIA        MD0118PA00X+013681Y+006594X0236Y0000R000S581032163
317GND              VIA        MD0118PA00X-004232Y+008760X0236Y0000R000S581032163
317GND              VIA        MD0118PA00X+005610Y+008858X0236Y0000R000S581032163
317GND              VIA        MD0118PA00X-004921Y+011122X0236Y0000R000S581032163
317GND              VIA        MD0118PA00X-000984Y+014961X0236Y0000R000S581032163
317GND              VIA        MD0118PA00X-004232Y+007579X0236Y0000R000S581032163
317GND              VIA        MD0118PA00X-002854Y+001280X0236Y0000R000S581032163
317GND              VIA        MD0118PA00X-000098Y+005217X0236Y0000R000S581032163
317GND              VIA        MD0118PA00X-001850Y+007244X0236Y0000R000S581032163
317GND              VIA        MD0118PA00X+012992Y+003248X0236Y0000R000S581032163
317GND              VIA        MD0118PA00X+003740Y+011417X0236Y0000R000S581032163
317GND              VIA        MD0118PA00X+000823Y+024970X0236Y0000R000S581032163
317GND              VIA        MD0118PA00X+000236Y+009616X0236Y0000R000S581032163
317GND              VIA        MD0118PA00X-006594Y+003150X0236Y0000R000S581032163
317GND              VIA        MD0118PA00X+005807Y+014469X0236Y0000R000S581032163
317GND              VIA        MD0118PA00X-012894Y+000295X0236Y0000R000S581032163
317GND              VIA        MD0118PA00X+007874Y+009055X0236Y0000R000S581032163
317GND              VIA        MD0118PA00X-006890Y+015256X0236Y0000R000S581032163
317GND              VIA        MD0118PA00X+012071Y+007713X0236Y0000R000S581032163
317GND              VIA        MD0118PA00X+001280Y+007283X0236Y0000R000S581032163
317GND              VIA        MD0118PA00X+000957Y+028720X0236Y0000R000S581032163
317GND              VIA        MD0118PA00X+005906Y+017409X0236Y0000R000S581032163
317GND              VIA        MD0118PA00X+009154Y+012697X0236Y0000R000S581032163
317GND              VIA        MD0118PA00X+017224Y+000295X0236Y0000R000S581032163
317GND              VIA        MD0118PA00X-002760Y+010469X0236Y0000R000S581032163
317GND              VIA        MD0118PA00X+003150Y+005217X0236Y0000R000S581032163
317GND              VIA        MD0118PA00X-002067Y+026969X0236Y0000R000S581032163
317GND              VIA        MD0118PA00X+012598Y+008465X0236Y0000R000S581032163
317GND              VIA        MD0118PA00X+008957Y+014075X0236Y0000R000S581032163
317GND              VIA        MD0118PA00X+000579Y+016024X0236Y0000R000S581032163
317GND              VIA        MD0118PA00X+001772Y+013583X0236Y0000R000S581032163
317GND              VIA        MD0118PA00X-000260Y+023297X0236Y0000R000S581032163
317GND              VIA        MD0118PA00X-002559Y+013287X0236Y0000R000S581032163
317GND              VIA        MD0118PA00X+004429Y+010925X0236Y0000R000S581032163
317GND              VIA        MD0118PA00X+003346Y+015059X0236Y0000R000S581032163
317GND              VIA        MD0118PA00X-001969Y+024913X0236Y0000R000S581032163
317GND              VIA        MD0118PA00X-009055Y+007677X0236Y0000R000S581032163
317GND              VIA        MD0118PA00X-008268Y+007677X0236Y0000R000S581032163
317GND              VIA        MD0118PA00X-007959Y+009902X0236Y0000R000S581032163
317GND              VIA        MD0118PA00X-001181Y+022835X0236Y0000R000S581032163
317GND              VIA        MD0118PA00X+003740Y+010827X0236Y0000R000S581032163
317GND              VIA        MD0118PA00X+014272Y+005512X0236Y0000R000S581032163
317GND              VIA        MD0118PA00X-007874Y+001280X0236Y0000R000S581032163
317GND              VIA        MD0118PA00X+000787Y+017421X0236Y0000R000S581032163
317GND              VIA        MD0118PA00X-008661Y+008071X0236Y0000R000S581032163
317GND              VIA        MD0118PA00X+011417Y+003248X0236Y0000R000S581032163
317GND              VIA        MD0118PA00X-003740Y+013484X0236Y0000R000S581032163
317GND              VIA        MD0118PA00X-003839Y+012402X0236Y0000R000S581032163
317GND              VIA        MD0118PA00X+009646Y+010236X0236Y0000R000S581032163
317GND              VIA        MD0118PA00X+001969Y+012697X0236Y0000R000S581032163
317GND              VIA        MD0118PA00X-007283Y+012500X0236Y0000R000S581032163
317GND              VIA        MD0118PA00X+009157Y+003988X0236Y0000R000S581032163
317GND              VIA        MD0118PA00X-003642Y+011220X0236Y0000R000S581032163
317GND              VIA        MD0118PA00X+004724Y+021094X0236Y0000R000S581032163
317GND              VIA        MD0118PA00X+001969Y+024898X0236Y0000R000S581032163
317GND              VIA        MD0118PA00X+005906Y+015795X0236Y0000R000S581032163
317GND              VIA        MD0118PA00X-002953Y+017421X0236Y0000R000S581032163
317GND              VIA        MD0118PA00X+000138Y+024024X0236Y0000R000S581032163
317GND              VIA        MD0118PA00X-002756Y+009764X0236Y0000R000S581032163
317GND              VIA        MD0118PA00X-012992Y+003248X0236Y0000R000S581032163
317GND              VIA        MD0118PA00X-000776Y+021067X0236Y0000R000S581032163
317GND              VIA        MD0118PA00X-005610Y+015157X0236Y0000R000S581032163
317GND              VIA        MD0118PA00X+006594Y+018701X0236Y0000R000S581032163
317GND              VIA        MD0118PA00X+005217Y+012008X0236Y0000R000S581032163
317GND              VIA        MD0118PA00X+005906Y+005610X0236Y0000R000S581032163
317GND              VIA        MD0118PA00X-007283Y+013484X0236Y0000R000S581032163
317GND              VIA        MD0118PA00X-005610Y+012402X0236Y0000R000S581032163
317GND              VIA        MD0118PA00X+003406Y+022835X0236Y0000R000S581032163
317GND              VIA        MD0118PA00X-014272Y+002067X0236Y0000R000S581032163
317GND              VIA        MD0118PA00X+009646Y+009449X0236Y0000R000S581032163
317GND              VIA        MD0118PA00X+003248Y+017520X0236Y0000R000S581032163
317GND              VIA        MD0118PA00X-000264Y+011370X0236Y0000R000S581032163
317GND              VIA        MD0118PA00X+004626Y+017520X0236Y0000R000S581032163
317GND              VIA        MD0118PA00X-002559Y+021457X0236Y0000R000S581032163
317GND              VIA        MD0118PA00X-015551Y+002953X0236Y0000R000S581032163
317GND              VIA        MD0118PA00X+011024Y+008169X0236Y0000R000S581032163
317GND              VIA        MD0118PA00X-010008Y+010189X0236Y0000R000S581032163
317GND              VIA        MD0118PA00X+006354Y+009276X0236Y0000R000S581032163
317GND              VIA        MD0118PA00X-002791Y+020783X0236Y0000R000S581032163
317GND              VIA        MD0118PA00X+007677Y+013449X0236Y0000R000S581032163
317GND              VIA        MD0118PA00X+012106Y+009350X0236Y0000R000S581032163
317GND              VIA        MD0118PA00X+007185Y+003740X0236Y0000R000S581032163
317GND              VIA        MD0118PA00X-012539Y+002559X0236Y0000R000S581032163
317GND              VIA        MD0118PA00X+001378Y+010925X0236Y0000R000S581032163
317GND              VIA        MD0118PA00X-011378Y+009429X0236Y0000R000S581032163
317GND              VIA        MD0118PA00X-012488Y+008461X0236Y0000R000S581032163
317GND              VIA        MD0118PA00X+003760Y+023878X0236Y0000R000S581032163
317GND              VIA        MD0118PA00X-001378Y+022047X0236Y0000R000S581032163
317GND              VIA        MD0118PA00X+001476Y+022736X0236Y0000R000S581032163
317GND              VIA        MD0118PA00X-003543Y+018602X0236Y0000R000S581032163
317GND              VIA        MD0118PA00X+006972Y+006413X0236Y0000R000S581032163
317GND              VIA        MD0118PA00X-010992Y+011193X0236Y0000R000S581032163
317GND              VIA        MD0118PA00X-002559Y+026083X0236Y0000R000S581032163
317GND              VIA        MD0118PA00X+007480Y+017520X0236Y0000R000S581032163
317GND              VIA        MD0118PA00X-009646Y+012598X0236Y0000R000S581032163
317GND              VIA        MD0118PA00X-001181Y+012106X0236Y0000R000S581032163
317GND              VIA        MD0118PA00X+008268Y+009055X0236Y0000R000S581032163
317GND              VIA        MD0118PA00X+000000Y+021146X0236Y0000R000S581032163
317GND              VIA        MD0118PA00X+008563Y+009055X0236Y0000R000S581032163
317GND              VIA        MD0118PA00X+004724Y+003150X0236Y0000R000S581032163
317GND              VIA        MD0118PA00X+000004Y+022248X0236Y0000R000S581032163
317GND              VIA        MD0118PA00X-001024Y+008898X0236Y0000R000S581032163
317GND              VIA        MD0118PA00X+002705Y+012209X0236Y0000R000S581032163
317GND              VIA        MD0118PA00X-004035Y+003248X0236Y0000R000S581032163
317GND              VIA        MD0118PA00X-007579Y+005315X0236Y0000R000S581032163
317GND              VIA        MD0118PA00X+010827Y+011713X0236Y0000R000S581032163
317GND              VIA        MD0118PA00X-006496Y+009863X0236Y0000R000S581032163
317GND              VIA        MD0118PA00X+001858Y+026047X0236Y0000R000S581032163
317GND              VIA        MD0118PA00X-000886Y+017717X0236Y0000R000S581032163
317GND              VIA        MD0118PA00X-001969Y+019980X0236Y0000R000S581032163
317GND              VIA        MD0118PA00X-008268Y+011713X0236Y0000R000S581032163
317GND              VIA        MD0118PA00X-005610Y+001280X0236Y0000R000S581032163
317GND              VIA        MD0118PA00X-008661Y+003248X0236Y0000R000S581032163
317GND              VIA        MD0118PA00X+000787Y+019685X0236Y0000R000S581032163
317GND              VIA        MD0118PA00X+003248Y+018996X0236Y0000R000S581032163
317GND              VIA        MD0118PA00X-002756Y+011516X0236Y0000R000S581032163
317GND              VIA        MD0118PA00X-001378Y+011614X0236Y0000R000S581032163
317GND              VIA        MD0118PA00X+007949Y+010992X0236Y0000R000S581032163
317GND              VIA        MD0118PA00X+003937Y+021154X0236Y0000R000S581032163
317GND              VIA        MD0118PA00X+001969Y+017425X0236Y0000R000S581032163
317GND              VIA        MD0118PA00X-015059Y+000295X0236Y0000R000S581032163
317GND              VIA        MD0118PA00X+002559Y+001280X0236Y0000R000S581032163
317GND              VIA        MD0118PA00X+013386Y+001575X0236Y0000R000S581032163
317GND              VIA        MD0118PA00X-012185Y+002579X0236Y0000R000S581032163
317GND              VIA        MD0118PA00X-002787Y+008976X0236Y0000R000S581032163
317GND              VIA        MD0118PA00X-000941Y+029264X0236Y0000R000S581032163
317GND              VIA        MD0118PA00X+006890Y+013780X0236Y0000R000S581032163
317GND              VIA        MD0118PA00X+005512Y+012795X0236Y0000R000S581032163
317GND              VIA        MD0118PA00X-006004Y+014469X0236Y0000R000S581032163
317GND              VIA        MD0118PA00X+002276Y+026673X0236Y0000R000S581032163
317GND              VIA        MD0118PA00X-012795Y+006988X0236Y0000R000S581032163
317GND              VIA        MD0118PA00X-005610Y+008366X0236Y0000R000S581032163
317GND              VIA        MD0118PA00X-005118Y+013484X0236Y0000R000S581032163
317GND              VIA        MD0118PA00X+000098Y+014567X0236Y0000R000S581032163
317GND              VIA        MD0118PA00X-001980Y+018642X0236Y0000R000S581032163
317GND              VIA        MD0118PA00X-009055Y+008957X0236Y0000R000S581032163
317GND              VIA        MD0118PA00X+000000Y+028642X0236Y0000R000S581032163
317GND              VIA        MD0118PA00X-001083Y+028346X0236Y0000R000S581032163
317GND              VIA        MD0118PA00X+003543Y+008465X0236Y0000R000S581032163
317GND              VIA        MD0118PA00X-010335Y+002657X0236Y0000R000S581032163
317GND              VIA        MD0118PA00X+008563Y+011024X0236Y0000R000S581032163
317GND              VIA        MD0118PA00X+002559Y+014370X0236Y0000R000S581032163
317GND              VIA        MD0118PA00X-000061Y+003520X0236Y0000R000S581032163
317GND              VIA        MD0118PA00X-009055Y+011713X0236Y0000R000S581032163
317GND              VIA        MD0118PA00X+012303Y+004429X0236Y0000R000S581032163
317GND              VIA        MD0118PA00X+011417Y+005512X0236Y0000R000S581032163
317GND              VIA        MD0118PA00X+010630Y+001476X0236Y0000R000S581032163
317GND              VIA        MD0118PA00X+012992Y+005512X0236Y0000R000S581032163
317GND              VIA        MD0118PA00X-000917Y+003512X0236Y0000R000S581032163
317GND              VIA        MD0118PA00X-013878Y+000295X0236Y0000R000S581032163
317GND              VIA        MD0118PA00X-004654Y+009811X0236Y0000R000S581032163
317GND              VIA        MD0118PA00X-005807Y+018602X0236Y0000R000S581032163
317GND              VIA        MD0118PA00X-003287Y+016193X0236Y0000R000S581032163
317GND              VIA        MD0118PA00X+005437Y+021071X0236Y0000R000S581032163
317GND              VIA        MD0118PA00X-001673Y+023327X0236Y0000R000S581032163
317GND              VIA        MD0118PA00X+001969Y+021752X0236Y0000R000S581032163
317GND              VIA        MD0118PA00X+000630Y+010232X0236Y0000R000S581032163
317GND              VIA        MD0118PA00X-000886Y+019587X0236Y0000R000S581032163
317GND              VIA        MD0118PA00X-002067Y+012008X0236Y0000R000S581032163
317GND              VIA        MD0118PA00X+009646Y+011220X0236Y0000R000S581032163
317GND              VIA        MD0118PA00X+006350Y+012283X0236Y0000R000S581032163
317GND              VIA        MD0118PA00X-004429Y+017421X0236Y0000R000S581032163
317GND              VIA        MD0118PA00X-004823Y+022047X0236Y0000R000S581032163
317GND              VIA        MD0118PA00X-001083Y+025984X0236Y0000R000S581032163
317GND              VIA        MD0118PA00X+004429Y+015453X0236Y0000R000S581032163
317GND              VIA        MD0118PA00X+008768Y+006276X0236Y0000R000S581032163
317GND              VIA        MD0118PA00X+003602Y+016307X0236Y0000R000S581032163
317GND              VIA        MD0118PA00X-010433Y+001378X0236Y0000R000S581032163
317GND              VIA        MD0118PA00X+007972Y+016831X0236Y0000R000S581032163
317GND              VIA        MD0118PA00X-011886Y+009559X0236Y0000R000S581032163
317GND              VIA        MD0118PA00X-000394Y+017421X0236Y0000R000S581032163
317GND              VIA        MD0118PA00X+004626Y+018504X0236Y0000R000S581032163
317GND              VIA        MD0118PA00X-001378Y+026673X0236Y0000R000S581032163
317GND              VIA        MD0118PA00X-003937Y+021146X0236Y0000R000S581032163
317GND              VIA        MD0118PA00X+001945Y+018638X0236Y0000R000S581032163
317GND              VIA        MD0118PA00X+002756Y+022539X0236Y0000R000S581032163
317GND              VIA        MD0118PA00X-003248Y+014567X0236Y0000R000S581032163
317GND              VIA        MD0118PA00X+001083Y+026476X0236Y0000R000S581032163
317GND              VIA        MD0118PA00X+000705Y+008949X0236Y0000R000S581032163
317GND              VIA        MD0118PA00X+001244Y+027559X0236Y0000R000S581032163
317GND              VIA        MD0118PA00X+001083Y+008268X0236Y0000R000S581032163
317GND              VIA        MD0118PA00X-005610Y+020472X0236Y0000R000S581032163
317GND              VIA        MD0118PA00X-003346Y+024508X0236Y0000R000S581032163
317GND              VIA        MD0118PA00X+008268Y+011024X0236Y0000R000S581032163
317GND              VIA        MD0118PA00X+002642Y+024831X0236Y0000R000S581032163
317GND              VIA        MD0118PA00X-002559Y+022835X0236Y0000R000S581032163
317/VCC_USB         VIA        MD0118PA00X-000984Y+010039X0236Y0000R000S581032163
317/VCC_USB         VIA        MD0118PA00X+002854Y+009656X0236Y0000R000S581032163
317VCC_MCU          VIA        MD0118PA00X-001093Y+010842X0236Y0000R000S581032163
317VCC_MCU          VIA        MD0118PA00X+011732Y+009134X0236Y0000R000S581032163
317VCC_MCU          VIA        MD0118PA00X+001663Y+014665X0236Y0000R000S581032163
317VCC_MCU          VIA        MD0118PA00X+002456Y+010536X0236Y0000R000S581032163
317VCC_MCU          VIA        MD0118PA00X-005807Y+013386X0236Y0000R000S581032163
317VCC_MCU          VIA        MD0118PA00X+000508Y+023297X0236Y0000R000S581032163
317VCC_MCU          VIA        MD0118PA00X-005217Y+010925X0236Y0000R000S581032163
317VCC_MCU          VIA        MD0118PA00X+006929Y+010472X0236Y0000R000S581032163
317VCC_L            VIA        MD0118PA00X+002264Y+023720X0236Y0000R000S581032163
317VCC_L            VIA        MD0118PA00X-007402Y+016654X0236Y0000R000S581032163
317VCC_L            VIA        MD0118PA00X+007996Y+014819X0236Y0000R000S581032163
317VCC_L            VIA        MD0118PA00X+008110Y+015748X0236Y0000R000S581032163
317VCC_L            VIA        MD0118PA00X-001969Y+023622X0236Y0000R000S581032163
317VCC_L            VIA        MD0118PA00X-001137Y+027908X0236Y0000R000S581032163
317VCC_L            VIA        MD0118PA00X+008087Y+016374X0236Y0000R000S581032163
317VCC_L            VIA        MD0118PA00X+003642Y+019882X0236Y0000R000S581032163
317VCC_L            VIA        MD0118PA00X-007756Y+016614X0236Y0000R000S581032163
317/LED_I           VIA        MD0118PA00X+006186Y+019803X0236Y0000R000S581032163
317/MIC_MISO        VIA        MD0118PA00X-003642Y+013189X0236Y0000R000S581032163
317/MIC_MISO        VIA        MD0118PA00X-001575Y+013093X0236Y0000R000S581032163
317/MIC_SCL         VIA        MD0118PA00X-003740Y+013878X0236Y0000R000S581032163
317/MIC_SCL         VIA        MD0118PA00X-002756Y+013878X0236Y0000R000S581032163
317/RST             VIA        MD0118PA00X+000100Y+014272X0236Y0000R000S581032163
317/RST             VIA        MD0118PA00X-000945Y+008583X0236Y0000R000S581032163
317/TIA_FB          VIA        MD0118PA00X+000439Y+024900X0236Y0000R000S581032163
317/TIA_FB          VIA        MD0118PA00X-001969Y+015354X0236Y0000R000S581032163
317NET-(U4-BATMS)   VIA        MD0118PA00X-003150Y+011319X0236Y0000R000S581032163
317NET-(U4-BATMS)   VIA        MD0118PA00X-003150Y+008661X0236Y0000R000S581032163
317/LED_CTL         VIA        MD0118PA00X-001478Y+014272X0236Y0000R000S581032163
317/LED_CTL         VIA        MD0118PA00X-000839Y+017370X0236Y0000R000S581032163
317NET-(H3-MP)      VIA        MD0118PA00X-005315Y+020315X0236Y0000R000S581032163
317/B1              VIA        MD0118PA00X+006988Y+014272X0236Y0000R000S581032163
317/B1              VIA        MD0118PA00X+008957Y+013780X0236Y0000R000S581032163
317/B1              VIA        MD0118PA00X+002067Y+013778X0236Y0000R000S581032163
317/B1              VIA        MD0118PA00X-000886Y+014665X0236Y0000R000S581032163
317NET-(U4-NTC)     VIA        MD0118PA00X+000589Y+003520X0236Y0000R000S581032163
317NET-(U4-NTC)     VIA        MD0118PA00X+001575Y+007185X0236Y0000R000S581032163
317/SENS_SDA        VIA        MD0118PA00X+006594Y+006398X0236Y0000R000S581032163
317/SENS_SDA        VIA        MD0118PA00X+006496Y+013780X0236Y0000R000S581032163
317/SENS_SCL        VIA        MD0118PA00X+006201Y+005906X0236Y0000R000S581032163
317/SENS_SCL        VIA        MD0118PA00X+006102Y+013388X0236Y0000R000S581032163
317/CTL_LEN         VIA        MD0118PA00X+008957Y+013189X0236Y0000R000S581032163
317/CTL_LEN         VIA        MD0118PA00X+006988Y+013189X0236Y0000R000S581032163
317/CTL_CEN         VIA        MD0118PA00X+001575Y+011319X0236Y0000R000S581032163
317/CTL_CEN         VIA        MD0118PA00X+001575Y+012699X0236Y0000R000S581032163
317/I_USB_P         VIA        MD0118PA00X-006511Y+009248X0236Y0000R000S581032163
317/I_USB_P         VIA        MD0118PA00X-008169Y+010531X0236Y0000R000S581032163
317/I_USB_P         VIA        MD0118PA00X-009240Y+010264X0236Y0000R000S581032163
317/I_USB_N         VIA        MD0118PA00X-006511Y+009548X0236Y0000R000S581032163
317/I_USB_N         VIA        MD0118PA00X-008169Y+010138X0236Y0000R000S581032163
317NET-(P1-VCONN)   VIA        MD0118PA00X-009305Y+009903X0236Y0000R000S581032163
317NET-(P1-VCONN)   VIA        MD0118PA00X-010079Y+009618X0236Y0000R000S581032163
327/VCC_USB         R9    -1          A01X-002293Y+014862X0315Y0374R000S2
327NET-(U1-PA3)     R9    -2          A01X-001644Y+014862X0315Y0374R000S2
327VCC_MCU          C16   -1          A01X-005423Y+013199X0354Y0374R000S2
327GND              C16   -2          A01X-004813Y+013199X0354Y0374R000S2
327VCC_MCU          MK1   -1          A01X-005285Y+014724X0177Y0374R180S2
327VCC_MCU          MK1   -2          A01X-005285Y+014193X0177Y0374R180S2
327/MIC_SCL         MK1   -3          A01X-004951Y+014193X0177Y0374R180S2
327/MIC_MISO        MK1   -4          A01X-004951Y+014724X0177Y0374R180S2
327GND              MK1   -5          A01X-005118Y+015157X0512Y0177R180S2
327GND              MK1   -6          A01X-005620Y+014459X0177Y0906R180S2
327GND              MK1   -7          A01X-005118Y+013760X0512Y0177R180S2
327GND              MK1   -8          A01X-004616Y+014459X0177Y0906R180S2
327NET-(U1-PC14)    Y1    -1          A01X+000953Y+014689X0236Y0433R180S2
327NET-(U1-PC15)    Y1    -2          A01X+000402Y+014689X0236Y0433R180S2
327GND              R5    -1          A01X-007067Y+009793X0315Y0374R270S2
327NET-(P1-CC)      R5    -2          A01X-007067Y+010443X0315Y0374R270S2
327VCC_MCU          C11   -1          A01X-000876Y+011220X0354Y0374R180S2
327GND              C11   -2          A01X-001486Y+011220X0354Y0374R180S2
327NET-(U1-VDDA)    C5    -1          A01X-000972Y+015344X0354Y0374R270S2
327GND              C5    -2          A01X-000972Y+015955X0354Y0374R270S2
327D-(D3-NC-PAD1)   D3    -1          A01X+000433Y+029154X0276Y0512R000S2
327GND              D3    -2          A01X+000000Y+029154X0276Y0512R000S2
327/LED_I           D3    -3          A01X-000433Y+029154X0276Y0512R000S2
327VCC_L            D3    -4          A01X-000433Y+027933X0276Y0512R000S2
327NET-(D3-DO)      D3    -5          A01X+000000Y+027933X0276Y0512R000S2
327VCC_L            D3    -6          A01X+000433Y+027933X0276Y0512R000S2
327VCC_MCU          R14   -1          A01X+014144Y+002490X0315Y0374R090S2
327NET-(U5-VDD)     R14   -2          A01X+014144Y+001841X0315Y0374R090S2
327VCC_MCU          R8    -1          A01X+002301Y+015717X0315Y0374R180S2
327NET-(U1-VDDA)    R8    -2          A01X+001652Y+015717X0315Y0374R180S2
327/LED_CTL         R17   -1          A01X+004400Y+019291X0315Y0374R000S2
327/LED_I           R17   -2          A01X+005049Y+019291X0315Y0374R000S2
327NET-(U5-VDD)     C12   -1          A01X+014144Y+001201X0354Y0374R090S2
327GND              C12   -2          A01X+014144Y+000591X0354Y0374R090S2
327/VCC_BAT         BZ1   -1          A01X+005610Y+008071X0787Y1654R270S2
327NET-(BZ1--)      BZ1   -2          A01X+005610Y+011220X0787Y1654R270S2
327-(D11-NC-PAD1)   D11   -1          A01X-001535Y+017933X0276Y0512R000S2
327GND              D11   -2          A01X-001969Y+017933X0276Y0512R000S2
327NET-(D10-DO)     D11   -3          A01X-002402Y+017933X0276Y0512R000S2
327VCC_L            D11   -4          A01X-002402Y+016713X0276Y0512R000S2
327NET-(D11-DO)     D11   -5          A01X-001969Y+016713X0276Y0512R000S2
327VCC_L            D11   -6          A01X-001535Y+016713X0276Y0512R000S2
327GND              R7    -1          A01X-010280Y+008348X0315Y0374R270S2
327NET-(P1-VCONN)   R7    -2          A01X-010280Y+008998X0315Y0374R270S2
327/AN_LI           R11   -1          A01X-001969Y+013553X0315Y0374R270S2
327/TIA_FB          R11   -2          A01X-001969Y+014203X0315Y0374R270S2
327/AN_LI           C8    -1          A01X-001959Y+012992X0354Y0374R180S2
327GND              C8    -2          A01X-002569Y+012992X0354Y0374R180S2
327VCC_L            C20   -1          A01X+008661Y+012707X0354Y0374R090S2
327ET-(U6-V_{FB})   C20   -2          A01X+008661Y+012096X0354Y0374R090S2
327/VCC_USB         C6    -1          A01X+003181Y+009656X0354Y0374R090S2
327GND              C6    -2          A01X+003181Y+009045X0354Y0374R090S2
327VCC_L            C26   -1          A01X-003906Y+016675X0354Y0374R090S2
327GND              C26   -2          A01X-003906Y+016065X0354Y0374R090S2
327GND              R19   -1          A01X+009744Y+010925X0315Y0374R180S2
327ET-(U6-V_{FB})   R19   -2          A01X+009094Y+010925X0315Y0374R180S2
327VCC_L            C21   -1          A01X-001378Y+027667X0354Y0374R090S2
327GND              C21   -2          A01X-001378Y+027057X0354Y0374R090S2
327VCC_MCU          C17   -1          A01X+001663Y+015059X0354Y0374R000S2
327GND              C17   -2          A01X+002274Y+015059X0354Y0374R000S2
327/RST             C24   -1          A01X-000294Y+008997X0354Y0374R315S2
327GND              C24   -2          A01X+000137Y+009428X0354Y0374R315S2
327NET-(Q1-G)       R1    -1          A01X+002195Y+011811X0315Y0374R180S2
327/BUZZ            R1    -2          A01X+001545Y+011811X0315Y0374R180S2
327-(D10-NC-PAD1)   D10   -1          A01X+002402Y+017933X0276Y0512R000S2
327GND              D10   -2          A01X+001969Y+017933X0276Y0512R000S2
327NET-(D10-DI)     D10   -3          A01X+001535Y+017933X0276Y0512R000S2
327VCC_L            D10   -4          A01X+001535Y+016713X0276Y0512R000S2
327NET-(D10-DO)     D10   -5          A01X+001969Y+016713X0276Y0512R000S2
327VCC_L            D10   -6          A01X+002402Y+016713X0276Y0512R000S2
327/AN_BAT          C23   -1          A01X-001772Y+012411X0354Y0374R090S2
327GND              C23   -2          A01X-001772Y+011801X0354Y0374R090S2
327/VCC_BAT         C15   -1          A01X+003181Y+007854X0354Y0374R270S2
327GND              C15   -2          A01X+003181Y+008465X0354Y0374R270S2
327GND              R25   -1          A01X+012992Y+003612X0315Y0374R270S2
327/B1              R25   -2          A01X+012992Y+004262X0315Y0374R270S2
327GND              R24   -1          A01X-012992Y+003612X0315Y0374R270S2
327/B2              R24   -2          A01X-012992Y+004262X0315Y0374R270S2
367N/C              BT1         D1039UA00X+009154Y+001378X1039Y0000R090S0
367N/C              BT1         D1039UA00X-009146Y+006098X1039Y0000R180S0
317/VCC_BAT         BT1   -1    D0402PA00X+010236Y+003738X0787Y0787R000S0
317NET-(BT1--)      BT1   -2    D0402PA00X-010232Y+003738X0787Y0000R000S0
327NET-(D1-A)       C25   -1          A01X-000191Y+025785X0354Y0374R000S2
327/TIA_FB          C25   -2          A01X+000419Y+025785X0354Y0374R000S2
327D-(D7-NC-PAD1)   D7    -1          A01X+000433Y+021673X0276Y0512R000S2
327GND              D7    -2          A01X+000000Y+021673X0276Y0512R000S2
327NET-(D6-DO)      D7    -3          A01X-000433Y+021673X0276Y0512R000S2
327VCC_L            D7    -4          A01X-000433Y+020453X0276Y0512R000S2
327NET-(D7-DO)      D7    -5          A01X+000000Y+020453X0276Y0512R000S2
327VCC_L            D7    -6          A01X+000433Y+020453X0276Y0512R000S2
327NET-(Q1-G)       Q1    -1          A01X+004060Y+012972X0581Y0236R000S2
327GND              Q1    -2          A01X+004060Y+012224X0581Y0236R000S2
327NET-(BZ1--)      Q1    -3          A01X+004798Y+012598X0581Y0236R000S2
327/VCC_BAT         L1    -1          A01X+009193Y+008465X0492Y1043R000S2
327NET-(U6-SW)      L1    -2          A01X+010295Y+008465X0492Y1043R000S2
327GND              C2    -1          A01X+000878Y+016010X0354Y0374R090S2
327NET-(U1-PC14)    C2    -2          A01X+000878Y+015400X0354Y0374R090S2
327NET-(H3-MP)      R20   -1          A01X-007110Y+017825X0315Y0374R090S2
327/LED_OUT         R20   -2          A01X-007110Y+017175X0315Y0374R090S2
327D-(D4-NC-PAD1)   D4    -1          A01X+002402Y+025413X0276Y0512R000S2
327GND              D4    -2          A01X+001969Y+025413X0276Y0512R000S2
327NET-(D3-DO)      D4    -3          A01X+001535Y+025413X0276Y0512R000S2
327VCC_L            D4    -4          A01X+001535Y+024193X0276Y0512R000S2
327NET-(D4-DO)      D4    -5          A01X+001969Y+024193X0276Y0512R000S2
327VCC_L            D4    -6          A01X+002402Y+024193X0276Y0512R000S2
327VCC_MCU          C14   -1          A01X+000415Y+022982X0354Y0374R180S2
327GND              C14   -2          A01X-000195Y+022982X0354Y0374R180S2
327ET-(P1-SHIELD)   C1    -1          A01X-007675Y+008024X0354Y0374R180S2
327GND              C1    -2          A01X-008285Y+008024X0354Y0374R180S2
327GND              R16   -1          A01X-002461Y+011781X0315Y0374R270S2
327/AN_BAT          R16   -2          A01X-002461Y+012431X0315Y0374R270S2
327ET-(U6-V_{FB})   R18   -1          A01X+008071Y+012077X0315Y0374R270S2
327VCC_L            R18   -2          A01X+008071Y+012726X0315Y0374R270S2
327GND              R13   -1          A01X+001287Y+007608X0315Y0374R000S2
327NET-(U4-ISET)    R13   -2          A01X+001937Y+007608X0315Y0374R000S2
317GND              J1    -1    D0394PA00X-002720Y+007874X0669Y0669R270S0
317/RST_TP          J1    -2    D0394PA00X-001720Y+007874X0669Y0000R270S0
317/SWDIO           J1    -3    D0394PA00X-000720Y+007874X0669Y0000R270S0
317/SWCLK           J1    -4    D0394PA00X+000280Y+007874X0669Y0000R270S0
327-(D12-NC-PAD1)   D12   -1          A01X-005472Y+017933X0276Y0512R000S2
327GND              D12   -2          A01X-005906Y+017933X0276Y0512R000S2
327NET-(D11-DO)     D12   -3          A01X-006339Y+017933X0276Y0512R000S2
327VCC_L            D12   -4          A01X-006339Y+016713X0276Y0512R000S2
327/LED_OUT         D12   -5          A01X-005906Y+016713X0276Y0512R000S2
327VCC_L            D12   -6          A01X-005472Y+016713X0276Y0512R000S2
327/VCC_BAT         C18   -1          A01X+008268Y+008278X0453Y0709R270S2
327GND              C18   -2          A01X+008268Y+009439X0453Y0709R270S2
327/VCC_BAT         D13   -1          A01X-012165Y+000925X0512Y0551R270S2
327GND              D13   -2          A01X-012165Y+002067X0512Y0551R270S2
327D-(D5-NC-PAD1)   D5    -1          A01X-001535Y+025413X0276Y0512R000S2
327GND              D5    -2          A01X-001969Y+025413X0276Y0512R000S2
327NET-(D4-DO)      D5    -3          A01X-002402Y+025413X0276Y0512R000S2
327VCC_L            D5    -4          A01X-002402Y+024193X0276Y0512R000S2
327NET-(D5-DO)      D5    -5          A01X-001969Y+024193X0276Y0512R000S2
327VCC_L            D5    -6          A01X-001535Y+024193X0276Y0512R000S2
327/AN_BAT          R15   -1          A01X-003150Y+012431X0315Y0374R090S2
327NET-(U4-BATMS)   R15   -2          A01X-003150Y+011781X0315Y0374R090S2
327/BL              SW3   -1          A01X+003346Y+014390X0354Y0669R270S2
327VCC_MCU          SW3   -2          A01X+003346Y+015728X0354Y0669R270S2
327NET-(U1-VDDA)    C4    -1          A01X-000394Y+014656X0354Y0374R270S2
327GND              C4    -2          A01X-000394Y+015266X0354Y0374R270S2
327GND              R12   -1          A01X+003386Y+011417X0315Y0374R180S2
327NET-(U4-SD)      R12   -2          A01X+002736Y+011417X0315Y0374R180S2
327VCC_MCU          U1    -1          A01X+000689Y+013952X0344Y0098R090S2
327NET-(U1-PC14)    U1    -2          A01X+000492Y+013952X0344Y0098R090S2
327NET-(U1-PC15)    U1    -3          A01X+000295Y+013952X0344Y0098R090S2
327/RST             U1    -4          A01X+000098Y+013952X0344Y0098R090S2
327NET-(U1-VDDA)    U1    -5          A01X-000098Y+013952X0344Y0098R090S2
327/B1              U1    -6          A01X-000295Y+013952X0344Y0098R090S2
327-(U1-PA1-PAD7)   U1    -7          A01X-000492Y+013952X0344Y0098R090S2
327/B2              U1    -8          A01X-000689Y+013952X0344Y0098R090S2
327NET-(U1-PA3)     U1    -9          A01X-000960Y+013681X0098Y0344R090S2
327/LED_CTL         U1    -10         A01X-000960Y+013484X0098Y0344R090S2
327/MIC_SCL         U1    -11         A01X-000960Y+013287X0098Y0344R090S2
327/MIC_MISO        U1    -12         A01X-000960Y+013091X0098Y0344R090S2
327/AN_LI           U1    -13         A01X-000960Y+012894X0098Y0344R090S2
327/AN_BAT          U1    -14         A01X-000960Y+012697X0098Y0344R090S2
327(U1-PB1-PAD15)   U1    -15         A01X-000960Y+012500X0098Y0344R090S2
327GND              U1    -16         A01X-000960Y+012303X0098Y0344R090S2
327VCC_MCU          U1    -17         A01X-000689Y+012032X0344Y0098R090S2
327NET-(U1-PA8)     U1    -18         A01X-000492Y+012032X0344Y0098R090S2
327(U1-PA9-PAD19)   U1    -19         A01X-000295Y+012032X0344Y0098R090S2
327U1-PA10-PAD20)   U1    -20         A01X-000098Y+012032X0344Y0098R090S2
327/USB_N           U1    -21         A01X+000098Y+012032X0344Y0098R090S2
327/USB_P           U1    -22         A01X+000295Y+012032X0344Y0098R090S2
327/SWDIO           U1    -23         A01X+000492Y+012032X0344Y0098R090S2
327/SWCLK           U1    -24         A01X+000689Y+012032X0344Y0098R090S2
327/BUZZ            U1    -25         A01X+000960Y+012303X0098Y0344R090S2
327/STA_CHG         U1    -26         A01X+000960Y+012500X0098Y0344R090S2
327/CTL_CEN         U1    -27         A01X+000960Y+012697X0098Y0344R090S2
327/CTL_LEN         U1    -28         A01X+000960Y+012894X0098Y0344R090S2
327/SENS_SCL        U1    -29         A01X+000960Y+013091X0098Y0344R090S2
327/SENS_SDA        U1    -30         A01X+000960Y+013287X0098Y0344R090S2
327/BL              U1    -31         A01X+000960Y+013484X0098Y0344R090S2
327GND              U1    -32         A01X+000960Y+013681X0098Y0344R090S2
327GND              U1    -33         A01X+000000Y+012992X1358Y1358R090S2
327NET-(U4-SYS)     C7    -1          A01X+002756Y+010236X0354Y0374R000S2
327GND              C7    -2          A01X+003366Y+010236X0354Y0374R000S2
327GND              C3    -1          A01X+000276Y+016010X0354Y0374R090S2
327NET-(U1-PC15)    C3    -2          A01X+000276Y+015400X0354Y0374R090S2
327NET-(BT1--)      F2    -1          A01X-012224Y+003612X0315Y0374R090S2
327GND              F2    -2          A01X-012224Y+002963X0315Y0374R090S2
327VCC_MCU          SW2   -1          A01X-012992Y+006181X0354Y0669R090S2
327/B2              SW2   -2          A01X-012992Y+004843X0354Y0669R090S2
327D-(D8-NC-PAD1)   D8    -1          A01X+004370Y+021673X0276Y0512R000S2
327GND              D8    -2          A01X+003937Y+021673X0276Y0512R000S2
327NET-(D7-DO)      D8    -3          A01X+003504Y+021673X0276Y0512R000S2
327VCC_L            D8    -4          A01X+003504Y+020453X0276Y0512R000S2
327NET-(D8-DO)      D8    -5          A01X+003937Y+020453X0276Y0512R000S2
327VCC_L            D8    -6          A01X+004370Y+020453X0276Y0512R000S2
327NET-(D1-A)       R6    -1          A01X-000211Y+025195X0315Y0374R000S2
327/TIA_FB          R6    -2          A01X+000439Y+025195X0315Y0374R000S2
327/TIA_FB          U3    -1          A01X+000492Y+024531X0522Y0236R090S2
327GND              U3    -2          A01X+000118Y+024531X0522Y0236R090S2
327NET-(D1-A)       U3    -3          A01X-000256Y+024531X0522Y0236R090S2
327GND              U3    -4          A01X-000256Y+023636X0522Y0236R090S2
327VCC_MCU          U3    -5          A01X+000492Y+023636X0522Y0236R090S2
327/RST             R4    -1          A01X-001407Y+008858X0315Y0374R180S2
327/RST_TP          R4    -2          A01X-002057Y+008858X0315Y0374R180S2
327/LED             R10   -1          A01X-001506Y+010531X0315Y0374R000S2
327NET-(U1-PA8)     R10   -2          A01X-000856Y+010531X0315Y0374R000S2
327VCC_L            C19   -1          A01X+001969Y+020768X0354Y0374R270S2
327GND              C19   -2          A01X+001969Y+021378X0354Y0374R270S2
327GND              R3    -1          A01X-009033Y+008024X0315Y0374R180S2
327ET-(P1-SHIELD)   R3    -2          A01X-009683Y+008024X0315Y0374R180S2
327VCC_MCU          SW1   -1          A01X+012992Y+006181X0354Y0669R090S2
327/B1              SW1   -2          A01X+012992Y+004843X0354Y0669R090S2
327GND              R21   -1          A01X+004429Y+015059X0315Y0374R090S2
327/BL              R21   -2          A01X+004429Y+014409X0315Y0374R090S2
327VCC_MCU          C10   -1          A01X+012854Y+001969X0354Y0374R000S2
327GND              C10   -2          A01X+013465Y+001969X0354Y0374R000S2
327/VCC_USB         U4    -1          A01X+002547Y+009429X0335Y0098R090S2
327NET-(U4-SYS)     U4    -2          A01X+002370Y+009429X0335Y0098R090S2
327VCC_MCU          U4    -3          A01X+002193Y+009429X0335Y0098R090S2
327NET-(U4-SD)      U4    -4          A01X+002016Y+009429X0335Y0098R090S2
327/STA_CHG         U4    -5          A01X+001839Y+009429X0335Y0098R090S2
327/CTL_CEN         U4    -6          A01X+001661Y+009429X0335Y0098R090S2
327GND              U4    -7          A01X+001661Y+008287X0335Y0098R090S2
327NET-(U4-NTC)     U4    -8          A01X+001839Y+008287X0335Y0098R090S2
327NET-(U4-ISET)    U4    -9          A01X+002016Y+008287X0335Y0098R090S2
327NET-(U4-BATMS)   U4    -10         A01X+002193Y+008287X0335Y0098R090S2
327/VCC_BAT         U4    -11         A01X+002370Y+008287X0335Y0098R090S2
327/VCC_BAT         U4    -12         A01X+002547Y+008287X0335Y0098R090S2
317GND              U4    -13   D0079PA00X+002474Y+009085X0197Y0000R090S3
317GND              U4    -13   D0079PA00X+002104Y+009085X0197Y0000R090S3
317GND              U4    -13   D0079PA00X+001734Y+009085X0197Y0000R090S3
327GND              U4    -13         A01X+002104Y+008858X0650Y0937R090S2
327GND              U4    -13         A04X+002104Y+008858X0650Y0937R090S3
317GND              U4    -13   D0079PA00X+002474Y+008632X0197Y0000R090S3
317GND              U4    -13   D0079PA00X+002104Y+008632X0197Y0000R090S3
317GND              U4    -13   D0079PA00X+001734Y+008632X0197Y0000R090S3
327GND              U5    -1          A01X+013543Y+000492X0197Y0138R090S2
327VCC_MCU          U5    -2          A01X+013287Y+000492X0197Y0138R090S2
327/SENS_SDA        U5    -3          A01X+013031Y+000492X0197Y0138R090S2
327/SENS_SCL        U5    -4          A01X+012776Y+000492X0197Y0138R090S2
327GND              U5    -5          A01X+012776Y+001299X0197Y0138R090S2
327VCC_MCU          U5    -6          A01X+013031Y+001299X0197Y0138R090S2
327GND              U5    -7          A01X+013287Y+001299X0197Y0138R090S2
327NET-(U5-VDD)     U5    -8          A01X+013543Y+001299X0197Y0138R090S2
327GND              D2    -1          A01X-002264Y+011137X0344Y0374R090S2
327/LED             D2    -2          A01X-002264Y+010517X0344Y0374R090S2
327/I_USB_P         U2    -1          A01X-005984Y+008898X0630Y0236R270S2
327GND              U2    -2          A01X-005610Y+008898X0630Y0236R270S2
327/USB_P           U2    -3          A01X-005236Y+008898X0630Y0236R270S2
327/USB_N           U2    -4          A01X-005236Y+009803X0630Y0236R270S2
327/VCC_USB         U2    -5          A01X-005610Y+009803X0630Y0236R270S2
327/I_USB_N         U2    -6          A01X-005984Y+009803X0630Y0236R270S2
327VCC_MCU          C9    -1          A01X+002746Y+010827X0354Y0374R000S2
327GND              C9    -2          A01X+003356Y+010827X0354Y0374R000S2
327D-(D6-NC-PAD1)   D6    -1          A01X-003504Y+021673X0276Y0512R000S2
327GND              D6    -2          A01X-003937Y+021673X0276Y0512R000S2
327NET-(D5-DO)      D6    -3          A01X-004370Y+021673X0276Y0512R000S2
327VCC_L            D6    -4          A01X-004370Y+020453X0276Y0512R000S2
327NET-(D6-DO)      D6    -5          A01X-003937Y+020453X0276Y0512R000S2
327VCC_L            D6    -6          A01X-003504Y+020453X0276Y0512R000S2
327NET-(F1-PAD1)    F1    -1          A01X-006821Y+011024X0315Y0374R000S2
327/VCC_USB         F1    -2          A01X-006171Y+011024X0315Y0374R000S2
367N/C              P1          D0260UA00X-008665Y+011811X0260Y0000R090S0
367N/C              P1          D0228UA00X-008665Y+008858X0394Y0228R090S0
327GND              P1    -A1         A01X-008366Y+011429X0118Y0394R090S2
327NET-(F1-PAD1)    P1    -A4         A01X-008366Y+011118X0118Y0394R090S2
327NET-(P1-CC)      P1    -A5         A01X-008366Y+010807X0118Y0394R090S2
327/I_USB_P         P1    -A6         A01X-008366Y+010496X0118Y0394R090S2
327/I_USB_N         P1    -A7         A01X-008366Y+010185X0118Y0394R090S2
327N/C              P1    -A8         A01X-008366Y+009874X0118Y0394R090S2
327NET-(F1-PAD1)    P1    -A9         A01X-008366Y+009563X0118Y0394R090S2
327GND              P1    -A12        A01X-008366Y+009252X0118Y0394R090S2
327GND              P1    -B1         A01X-008965Y+009252X0118Y0394R090S2
327NET-(F1-PAD1)    P1    -B4         A01X-008965Y+009563X0118Y0394R090S2
327NET-(P1-VCONN)   P1    -B5         A01X-008965Y+009874X0118Y0394R090S2
327/I_USB_P         P1    -B6         A01X-008965Y+010185X0118Y0394R090S2
327/I_USB_N         P1    -B7         A01X-008965Y+010496X0118Y0394R090S2
327N/C              P1    -B8         A01X-008965Y+010807X0118Y0394R090S2
327NET-(F1-PAD1)    P1    -B9         A01X-008965Y+011118X0118Y0394R090S2
327GND              P1    -B12        A01X-008965Y+011429X0118Y0394R090S2
317ET-(P1-SHIELD)   P1    -S1   D0276PA00X-007819Y+011280X0433Y0000R090S0
317ET-(P1-SHIELD)   P1    -S1   D0276PA00X-009512Y+011280X0433Y0000R090S0
317ET-(P1-SHIELD)   P1    -S1   D0276PA00X-007819Y+009390X0433Y0000R090S0
317ET-(P1-SHIELD)   P1    -S1   D0276PA00X-009512Y+009390X0433Y0000R090S0
327NET-(U6-SW)      U6    -1          A01X+010094Y+009469X0522Y0236R180S2
327GND              U6    -2          A01X+010094Y+009843X0522Y0236R180S2
327/CTL_LEN         U6    -3          A01X+010094Y+010217X0522Y0236R180S2
327ET-(U6-V_{FB})   U6    -4          A01X+009198Y+010217X0522Y0236R180S2
327VCC_L            U6    -5          A01X+009198Y+009843X0522Y0236R180S2
327/VCC_BAT         U6    -6          A01X+009198Y+009469X0522Y0236R180S2
327D-(D9-NC-PAD1)   D9    -1          A01X+006339Y+017933X0276Y0512R000S2
327GND              D9    -2          A01X+005906Y+017933X0276Y0512R000S2
327NET-(D8-DO)      D9    -3          A01X+005472Y+017933X0276Y0512R000S2
327VCC_L            D9    -4          A01X+005472Y+016713X0276Y0512R000S2
327NET-(D10-DI)     D9    -5          A01X+005906Y+016713X0276Y0512R000S2
327VCC_L            D9    -6          A01X+006339Y+016713X0276Y0512R000S2
327VCC_MCU          C13   -1          A01X+001663Y+014370X0354Y0374R000S2
327GND              C13   -2          A01X+002274Y+014370X0354Y0374R000S2
327GND              R2    -1          A01X+003346Y+012274X0315Y0374R270S2
327NET-(Q1-G)       R2    -2          A01X+003346Y+012923X0315Y0374R270S2
327VCC_L            C22   -1          A01X+008268Y+010256X0453Y0709R270S2
327GND              C22   -2          A01X+008268Y+011417X0453Y0709R270S2
327/LED_I           H4    -1          A04X+005906Y+019685X0984Y0984R241S1
317GND              D1    -1    D0354PA00X-000512Y+026575X0709Y0709R000S0
317NET-(D1-A)       D1    -2    D0354PA00X+000488Y+026575X0709Y0000R000S0
327NET-(H3-MP)      H3    -1          A04X-005906Y+019685X0984Y0984R209S1
327NET-(U4-NTC)     TH1   -1          A04X+000589Y+003520X0315Y0374R180S1
327GND              TH1   -2          A04X-000061Y+003520X0315Y0374R180S1
327VCC_L            H6    -1          A04X-008110Y+015748X0984Y0984R209S1
327VCC_L            H1    -1          A04X+008110Y+015748X0984Y0984R241S1
999
