:020000040800F2
:1000000000A0002005570008954F00089D4F0008EC
:1000100000000000000000000000000000000000E0
:10002000000000000000000000000000A54F0008D4
:100030000000000000000000AF4F0008B94F0008AA
:100040005557000855570008DD4F00085557000860
:100050005557000855570008C74F00085557000866
:10006000F54F00080D5000082550000855570008AE
:100070003D500008555700085557000855500008D6
:1000800055570008555700086D500008555700088F
:100090005557000855570008555700085557000890
:1000A0005557000885500008555700085557000857
:1000B0005557000855570008555700085557000870
:1000C00010B5064C2378002B07D1054B002B02D02E
:1000D000044800E000BF0123237010BDD8020020B7
:1000E0000000000094560208044B10B5002B03D00A
:1000F0000349044800E000BF10BDC04600000000F6
:10010000DC0200209456020802780B78002A03D003
:10011000013001319A42F7D0D01A70470023C25CF7
:100120000133002AFBD1581E7047000002B471460B
:1001300049084900095C49008E4402BC7047C0462A
:1001400003B47146490840004900095E49008E44E5
:1001500003BC7047002243088B4274D303098B42CF
:100160005FD3030A8B4244D3030B8B4228D3030C87
:100170008B420DD3FF22090212BA030C8B4202D329
:100180001212090265D0030B8B4219D300E0090A51
:10019000C30B8B4201D3CB03C01A5241830B8B425A
:1001A00001D38B03C01A5241430B8B4201D34B0343
:1001B000C01A5241030B8B4201D30B03C01A5241A8
:1001C000C30A8B4201D3CB02C01A5241830A8B422D
:1001D00001D38B02C01A5241430A8B4201D34B0216
:1001E000C01A5241030A8B4201D30B02C01A52417A
:1001F000CDD2C3098B4201D3CB01C01A524183092E
:100200008B4201D38B01C01A524143098B4201D367
:100210004B01C01A524103098B4201D30B01C01A92
:100220005241C3088B4201D3CB00C01A524183080C
:100230008B4201D38B00C01A524143088B4201D339
:100240004B00C01A5241411A00D201465241104699
:100250007047FFE701B5002000F0F0F802BDC0468E
:100260000029F7D076E7704703460B437FD400227E
:1002700043088B4274D303098B425FD3030A8B423A
:1002800044D3030B8B4228D3030C8B420DD3FF22A4
:10029000090212BA030C8B4202D31212090265D072
:1002A000030B8B4219D300E0090AC30B8B4201D325
:1002B000CB03C01A5241830B8B4201D38B03C01A6C
:1002C0005241430B8B4201D34B03C01A5241030BE3
:1002D0008B4201D30B03C01A5241C30A8B4201D394
:1002E000CB02C01A5241830A8B4201D38B02C01A3F
:1002F0005241430A8B4201D34B02C01A5241030AB6
:100300008B4201D30B02C01A5241CDD2C3098B429A
:1003100001D3CB01C01A524183098B4201D38B0117
:10032000C01A524143098B4201D34B01C01A5241BA
:1003300003098B4201D30B01C01A5241C3088B42FF
:1003400001D3CB00C01A524183088B4201D38B00EA
:10035000C01A524143088B4201D34B00C01A52418C
:10036000411A00D201465241104670475DE0CA0F63
:1003700000D04942031000D34042534000229C4623
:1003800003098B422DD3030A8B4212D3FC2289012D
:1003900012BA030A8B420CD3890192118B4208D303
:1003A000890192118B4204D389013AD0921100E065
:1003B0008909C3098B4201D3CB01C01A5241830979
:1003C0008B4201D38B01C01A524143098B4201D3A6
:1003D0004B01C01A524103098B4201D30B01C01AD1
:1003E0005241C3088B4201D3CB00C01A524183084B
:1003F0008B4201D38B00C01A5241D9D243088B42A1
:1004000001D34B00C01A5241411A00D20146634643
:1004100052415B10104601D34042002B00D54942A7
:10042000704763465B1000D3404201B5002000F0E6
:1004300005F802BD0029F8D016E770477047C0469E
:100440008446100062468C461900634600E0C046B0
:100450001FB502F07DFA002801D40021C8421FBD5B
:1004600010B502F0C1F94042013010BD10B502F0E4
:100470006FFA002801DB002010BD012010BDC0462E
:1004800010B502F065FA002801DD002010BD012042
:1004900010BDC04610B502F0EBF9002801DC0020C9
:1004A00010BD012010BDC04610B502F0E1F90028D2
:1004B00001DA002010BD012010BDC04684460800AE
:1004C0006146FFE71FB500F0DFFD002801D40021E1
:1004D000C8421FBD10B500F067FD4042013010BD9D
:1004E00010B500F0D1FD002801DB002010BD012077
:1004F00010BDC04610B500F0C7FD002801DD00208A
:1005000010BD012010BDC04610B500F075FD0028DB
:1005100001DC002010BD012010BDC04610B500F068
:100520006BFD002801DA002010BD012010BDC0467F
:100530001C2101231B04984201D3000C10391B0A13
:10054000984201D3000A08391B09984201D30009D7
:10055000043902A2105C40187047C046040302022E
:10056000010101010000000000000000002B15D176
:10057000002A13D1002906DB01DC002806D0002068
:10058000C043410802E080210906002007B4024868
:1005900001A14018029003BDA5FEFFFF03B4684609
:1005A00001B5029800F0DAF9019B9E4602B00CBC3E
:1005B0007047C046002B11D1002A0FD1002900D16D
:1005C000002802D00021C943080007B4024802A154
:1005D0004018029003BDC04665FEFFFF03B46846A5
:1005E00001B5029800F0EEF8019B9E4602B00CBCEB
:1005F0007047C046F0B5CE469946030C9C4613049E
:1006000047461B0C1D000E0061460404240C80B5F7
:100610000700100C4B436543414360432C0CC0184A
:1006200024188C46A34203D980235B029846C44415
:10063000494679435643230C2D042D0C89196344F4
:1006400024046019C918C0BCB946B046F0BDC04604
:100650009E2110B5C905041CFFF760FF002803D1D7
:10066000201C01F02DF910BD9E21201CC90500F0B1
:10067000ADFE01F025F980231B069C466044F2E79D
:1006800070B500220C4B04000D00FFF70DFF002891
:1006900004D12000290003F0DBF870BD064B0022D6
:1006A0002000290002F0A8FC03F0D2F880231B06EA
:1006B0009C466044F1E7C0460000E04170B500226E
:1006C000002304000D00FFF7D1FE002808D1200010
:1006D000290000F00FF802000B001000190070BD97
:1006E00080231B06E918200000F004F80023424292
:1006F0008B41F2E770B500220B4B0D00040002F0B5
:1007000095F9FFF7BDFF060003F00CF90022074B37
:1007100002F08CF902000B002000290002F06CFCB2
:10072000FFF7AEFF310070BD0000F03D0000F0416A
:100730000122F8B50D000400144B52428021121919
:100740006B41C9038B4217D211498B4212D028004A
:1007500003F0BAF800220F4B02F068F906000F0010
:10076000200003F0DFF832003B0001F05FF903F0F6
:1007700045F9F8BD0232EAD96305E8D08021E30AE1
:10078000DB02090119430C00E1E7C046FFFF1F002F
:10079000FFFF3F000000F04170B50600080003F0C5
:1007A00093F80022064B02F041F90D0004003000DE
:1007B00003F0B8F82B00220001F038F970BDC046F4
:1007C0000000F041F0B557464E464546DE46E0B5DE
:1007D00004000D009246994683B08B4230D82DD04C
:1007E0004946504603F08CF929000600200003F02A
:1007F00087F9331A9846203B34D49B4653465A46D1
:10080000934042461F00534693401E00AF423BD8E0
:10081000AF4200D179E05B46A41BBD41002B00DA5A
:1008200076E0002200230092019301235A46934070
:100830000193012342469340009329E08242CFD99D
:1008400000220023009201930C9B002B01D01C601E
:100850005D600098019903B0F0BCBB46B246A94662
:10086000A046F0BD42469B4620239B1A5246DA40E2
:10087000414613004A468A40170042461F435346EA
:1008800093401E00AF42C3D900220023009201937F
:100890004346002BD8D0FB0772081A4346467B0814
:1008A0000EE0AB4201D1A2420CD8A41A9D41012016
:1008B00024196D410021013E24184D41002E06D01F
:1008C000AB42EED9013E24196D41002EF8D10098BB
:1008D00001995B4600196941002B24DB2B005A4625
:1008E0004446D3402A00E2401C005B461500002B22
:1008F0002ADB26009E40330026004746BE403200D9
:10090000801A9941009001919EE7A342BCD882E7EA
:100910004246202300219B1A0022009101920122CD
:10092000DA40019285E7424620239B1A2A00464678
:100930009A402300F340444613432A00E2401C003F
:100940005B461500002BD4DA42462F0020232600F8
:1009500097409B1ADE403B003343CDE7F8B5CE46C7
:10096000474680B59146984604000D0003F0D4F840
:1009700007000E0002000B0048464146FFF73AFE12
:10098000241A8D41089B380031001C605D60C0BC9A
:10099000B946B046F8BDC046F8B54B025A0A94466F
:1009A0004A00C90FCE4647468946450046022D0EED
:1009B000120E80B59909770AC40FB609AB1A4C45D7
:1009C00020D0002B0CDD002A34D100292AD05A1E59
:1009D000012B00D18FE0FF2B00D1CDE013002FE0E1
:1009E000002B60D0531B002D00D0EEE0002E00D174
:1009F0003EE15C1E012B00D16BE1FF2B00D1B9E081
:100A00002300E7E0002B00DCA4E0002A69D0FF2DE2
:100A100000D1B1E08022D20411431B2B00DCE9E0BD
:100A20002B000536F708FF2B00D1A5E07A02520A09
:100A3000D8B230E0FF2D00D19EE08022D2041143D5
:100A400001201B2B08DC08002022D840D31A994033
:100A50000B005A1E93411843361A730100D471E0FB
:100A6000B601B7093800FFF763FD3B000538834046
:100A700085424DDDB44E2D1A1E405A0768D00F2214
:100A80001340042B64D00436730161D5681CFE2D1D
:100A900054D1FF200022C0051043E4072043C0BC0E
:100AA000B946B046F8BDFE229046681C020040469A
:100AB00010426BD1002D00D0DDE0002E00D102E10C
:100AC0000029B3D08022771AD204174200D136E130
:100AD0004C468E1B61D00120164230D10023F7080E
:100AE000A4E700299ED05A1E012B00D1CAE0FF2B9B
:100AF00042D0130091E7711A4B0100D4D1E08F016D
:100B0000BF093800FFF714FD3B000538834001257D
:100B10002022401B0130121A1E009340C6405A1E6C
:100B200093411E4339D0730700D11BE10F230025E9
:100B30003340042BA7D1012072017CD5C0B2B20191
:100B4000520AA8E7730703D00F233340042B9AD12E
:100B50002B0067E7002B23D0531B002D7BD1002EE9
:100B600000D186E05D1E012B00D18BE0FF2B02D06F
:100B70002B0075E04C466746002F00D189E78022A4
:100B8000D2033A435202FF20520A84E7771A7B01CC
:100B90006BD4002F00D065E70024002000227AE704
:100BA000FE226B1C1A4249D1002D00D09FE0002E7E
:100BB00000D1BAE0002900D1CFE07218530100D46F
:100BC000CDE092010120520A65E7FF2AD2D08020B1
:100BD000C004064301201B2B08DC30002024D84031
:100BE000E31A9E4033005C1EA34118434C46150097
:100BF0000E1A32E708002022D840D31A99400B0081
:100C00005A1E93410343F61873019BD50135FF2DFE
:100C100000D13EE701234D49720833400A401A4390
:100C20001600530704D00F231340042B00D02AE7EB
:100C3000730100D52AE72B00F708F7E6FF2B00D158
:100C400027E7711849084A072FD00F220A40042AC3
:100C50002BD00E1DE6E6FF2A8DD08020C00406436F
:100C60001B2B24DD13004E1DDCE64C468F1BF9E6E2
:100C70004C460E00D6E6002E49D1002968D06746C2
:100C80004C467CE77018430174D530494008014058
:100C9000430709D00F230340042B05D002230E1D68
:100CA000C0E60123CF08C1E60223CF08BEE6202517
:100CB0003000D840EB1A9E4033005D1EAB41034329
:100CC00015005E18A0E7002900D165E74C4667468D
:100CD000ACE68F1B7B012ED5BF01BF093800FFF7A3
:100CE00027FC3B00053883404C46013510E7002EB9
:100CF00000D140E7002900D141E78023DB039F4278
:100D000000D23CE79C4500D339E7674637E7002926
:100D100000D134E78023DB039F4200D22FE79C45BC
:100D200000D32CE74C46674629E7002900D134E779
:100D30000023CF087AE64C460123FF0876E6002F11
:100D400000D129E7FF0871E6FFFFFFFBFFFFFF7DF2
:100D500080220024FF20D2039DE6002366E60023C4
:100D6000D70863E60120720100D5E7E631000023D1
:100D7000CF085BE60123C70858E6C046F0B54646F3
:100D80004F46D6464502C0B5C30F470098460E1CD5
:100D90006D0A3F0E5BD0FF2F21D08023ED00DB04D6
:100DA0001D43002399469A467F3F74027300640AEC
:100DB0001B0EF60F002B20D0FF2B43D080220020EB
:100DC000E400D20414437F3B4246FF1A4B46724074
:100DD0000F2B00D99DE071499B00CB589F46002DF9
:100DE0005AD108239946063B74029A467300FF279E
:100DF000640A1B0EF60F002BDED1002C3BD1012321
:100E000042464946724019430E2918D86448890061
:100E100041588F465346022B00D1B8E0032B6ED0C9
:100E200042462C00012B40D100200024C005204365
:100E3000D2071043E0BCBA46B146A846F0BDFF2039
:100E40000024F3E7002C20D10223FF3FD8E7002D38
:100E500005D104239946033B00279A46A5E72800BD
:100E6000FFF766FB7627431F9D4000237F4299468C
:100E70009A463F1A99E72000FFF75AFB431F9C4010
:100E800076235B421B1A00209EE703234A461A433F
:100E900091460320FC3397E70C239946093BFF2733
:100EA0009A4682E703282CD0320038007F30002891
:100EB00047DD630704D00F232340042B00D0043404
:100EC000230103D53800374B80301C40FE28B6DCA8
:100ED000A401640AC0B2A9E780240022FF20E40331
:100EE000A4E78023DB031D4201D01C420BD08024E9
:100EF000E4032C4364024246FF20640A96E7464618
:100F00002C008023DB031C4364023200FF20640AB0
:100F10008CE76D01600185422DD21B230024013F27
:100F20000126290064006D00002901DB854201D300
:100F30002D1A3443013B002BF3D16B1E9D412C43F2
:100F4000B3E701231B1A1B2B00DD6DE721009E3741
:100F5000D940BC400B00611E8C412343590704D08B
:100F60000F211940042900D00433590113D49B01E7
:100F700000205C0A5AE71A2301242D1AD0E7981E94
:100F800043425841404232000024C0B24EE742463C
:100F9000FF2000244AE70120002447E79C6B020859
:100FA000DC6B0208FFFFFFF770B542004E024C00F9
:100FB00045026D0A120EC30F760A240EC90FFF2ACE
:100FC00010D0FF2C0CD00120A2420AD1B54208D18A
:100FD0008B420FD0002A04D12800431E984100E024
:100FE000012070BD0120FF2CFBD13543F9D14B40CE
:100FF0001800F6E70020F4E730B5420044024D0245
:10100000C30F4800640A120E6D0A000EC90FFF2AB2
:1010100018D0FF280AD0002A1ED100280AD1002D9E
:1010200029D0002C2DD14800013830BD002D25D10C
:10103000002A01D1002CF6D08B4219D001205B424E
:101040001843F2E7002C19D1FF28F7D1002D15D154
:1010500000208B42F2D1E8E70028EFD08B42EDD19F
:101060008242EBDC04DBAC42E8D80020AC42DCD2AC
:1010700058000138D9E7002CD7D0DFE702204042E2
:10108000D3E78B42DAD1EEE730B5420044024D029D
:10109000C30F4800640A120E6D0A000EC90FFF2A22
:1010A00017D0FF280AD0002A1BD100280AD1002D12
:1010B0001DD0002C2DD14800013811E0002D0ED19B
:1010C000002A01D1002CF6D08B420CD158000138F7
:1010D00006E0002C03D1FF2805D1002D15D00220F9
:1010E00030BD002806D101205B421843F8E7002CF0
:1010F000F6D0F8E78B42F6D18242F4DCE6DBAC4274
:10110000F1D80020AC42EBD2E0E700208B42EAD1DC
:10111000E6E78B42E7D1F2E7F0B54F464646D646C2
:101120004400C0B546020F1C760A240EC50F002CE1
:1011300000D1DAE0FF2C74D08023F600DB041E43DC
:10114000002399469A467F3C7B025B0A98467B00C7
:101150001B0EFF0F002B74D0FF2B00D18EE04246F8
:101160008021D200C90411437F3B2A00E4184B467A
:101170007A408846D2B20A2B75DC4B460020022BFF
:101180000FDD494601238B40A621C9000B4269D1DE
:10119000902189000B4200D000E18821194200D043
:1011A000F5E041460904090C43460800350C3604B5
:1011B0001B0C360C704369435E435D437618030C89
:1011C0009B19994203D9802149028C466544000449
:1011D0001904000C09188E01701E86411B0C890E23
:1011E0005B190E439B011E431B016CD423007F330C
:1011F000002B00DCB1E0150071070BD00F2021009F
:101200003040042806D00436320103D56E4B1E4010
:101210000B008033FE2B00DDBDE0B201520ADBB2D1
:1012200048E0002E00D092E008239946063B9A46FB
:101230007B025B0A98467B00FF241B0EFF0F002BEE
:101240008AD14246002A64D1494601321143894677
:101250000A2908DC7D400120EAB2022991DC150050
:10126000002227E015005346022B00D193E0032B08
:101270001AD0012B2CD1002300221BE04346FF345F
:10128000002B55D003214B460B4319000A2B00DCE1
:1012900092E00F2B00D08CE08022D203164203D0C4
:1012A0004346134200D17DE08022D20332435202F2
:1012B000520AFF23D805ED0710432843E0BCBA4685
:1012C000B146A846F0BD0123150071081E400E432B
:1012D00023008033611C002B41DD720794D00F2264
:1012E0003240042A00D08EE78EE7002E05D1042379
:1012F0009946033B00249A4626E73000FFF718F989
:101300007624431F9E400023644299469A46241A3D
:101310001AE74046FFF70CF94B46241A763C0A2B95
:10132000A1DC4346053883407D409846EAB224E775
:101330004A46023313432A007A40D2B20A2B92DC87
:1013400049461500002926D09946022019E70C23AA
:101350009946093BFF249A46F6E615002100012232
:10136000D31A1B2B00DD86E79E3132008E40DA4017
:10137000731E9E413243530704D00F231340042BA6
:1013800000D00432530110D50123002292E73D0022
:101390004646824667E7FF2300228BE7802200252E
:1013A000D20386E73D001A4383E792010023520AE5
:1013B00080E73D00464677E72A0001237A408B40CC
:1013C0000320D2B2E9E6C046FFFFFFF7F8B5474673
:1013D000CE46430280B55F0A9B0945004A009C4601
:1013E0004B02C40FCE0F2D0E580A120E9909FF2A78
:1013F0006BD001235E40AB1AB4424BD0002B00DC13
:10140000FFE0002A00D188E0FF2D00D1EFE080222C
:10141000D204114301201B2B08DC08002022D840F5
:10142000D31A99400B005A1E9341184363461B1A66
:101430009C4663465B0100D4CDE063469F01BF0933
:101440003800FFF775F83B0005388340854200DC23
:10145000A2E0B74A2D1A1A4094465A0700D1C3E0B9
:101460000F221340042B00D1BEE004239846C4444D
:1014700063465B0100D4B7E0681CFE2D00D0A5E0F8
:10148000FF200022C0051043E4072043C0BCB9463A
:10149000B046F8BD002B00DCEBE1002A46D0FF2D62
:1014A00000D1A4E08022D20411431B2B00DCFBE01E
:1014B000052398462B00C4446246D708FF2B00D171
:1014C00095E07A02520AD8B2DCE72B00FF3B99463E
:1014D000002918D101235E40B44200D1CAE04B4636
:1014E000002B2DD0002D00D03CE1FF236446002CC2
:1014F00000D15FE15D1E012B00D174E13400FF2BB0
:1015000074D02B0003E1B44200D19CE0002B17D033
:10151000002DEAD0070034006CE00029CCD05A1E20
:10152000012B2BD0FF2B62D0130073E70029C3D00F
:101530005A1E012B00D11EE1FF2B58D01300B4E737
:10154000FE226B1C1A420DD1002D60D06346002B89
:1015500000D020E1002900D028E180220024FF20D3
:10156000D2038FE763465F1A7B0100D5FEE0002FB0
:1015700000D065E700240020002283E76346591A63
:101580004B0100D419E18F01BF093800FEF7D0FFED
:101590003B000538834001252022401B0130121AF0
:1015A00019009340C1405A1E934119438C460B1EAB
:1015B000E1D05B0700D152E10F2300250B40042B43
:1015C00000D052E701204A0100D492E0C0B2634645
:1015D0009A01520A56E763465B0705D00F2362461D
:1015E0001340042B00D040E72B0065E70700002FD5
:1015F00000D145E78022D2033A435202FF20520A2B
:1016000040E7002B79D1FE226B1C1A42AAD1634617
:10161000002B00D1F5E0002900D1D1E05F1A802332
:10162000DB041F4200D10EE1624601248A1A94466F
:1016300000203440002A00D124E701201A42C6D1FC
:101640000023D7083DE7002B17D0002D00D0AFE0D6
:10165000FF236546002D00D1ADE05E1E012B00D1B9
:1016600089E0FF2BC2D01B2E00DCABE04B1D9C465B
:10167000130021E74B46002B70D1FE226B1C1A424F
:101680005ED1002D00D0C3E06346002B00D1D0E036
:10169000002900D194E00A006244530100D4D8E04C
:1016A00092010120520AEDE608002022D840D31A08
:1016B00099400B005A1E934103439C4463465B01CF
:1016C00089D50135FF2D00D1DAE66246012319499B
:1016D000134052080A401A43130094465B0704D093
:1016E0000F231340042B00D0BFE663465B0100D5F7
:1016F000C2E66346DF082B00E3E6531B002D00D152
:10170000F4E680206446C0040443A446340001206B
:101710001B2B09DC20256046D840EB1A65469D400E
:101720002B005D1EAB4118430B1A9C46150080E64A
:10173000FFFFFFFBFFFFFF7DFE226B1C1342A3D0C8
:10174000FF2B00D19CE6614449084A0749D00F228B
:101750000A40042A45D00A1D9446ADE6002D00D16A
:1017600076E78DE63400FF2000228BE663460124F5
:10177000CF1A344064E661444B016DD548084449B2
:10178000014043072CD00F230340042B28D00B1D0E
:101790009C46022390E6002900D12BE78023DB033F
:1017A0009F4200D226E7984200D323E70124344029
:1017B00007001FE734008C467EE60123CF0880E651
:1017C00000237EE620206546801B85406346280076
:1017D000F340451EA84103439C4615008C446DE729
:1017E0000223CF086DE60F1B7B0128D5BF01BF097F
:1017F0003800FEF79DFE3B0005388340340001258C
:10180000CAE6002900D1B5E601240700344058E6B5
:101810006346002B00D1E9E6002900D1EAE68023E7
:10182000DB039F4200D2E5E6984200D3E2E60700E0
:10183000E0E6002900D19EE60023CF0841E634000F
:101840000123FF083DE6002F00D193E60023FF08A7
:1018500037E60023D70834E60123CF0831E680229B
:101860000B00D20401201340114200D0AEE6CF0895
:1018700027E6002B00D15FE7561B002D01D1330076
:10188000E7E680236046DB0418438446EBE6C04667
:10189000FFFFFF7D43024A02400049005B0A520AF3
:1018A000090E000EFF2806D00020FF2902D1531E8A
:1018B0009A4110007047FE38002BFBD1F4E7C04678
:1018C00041024200C30F490A0020120E7E2A03DDA6
:1018D0009D2A02DD094A98187047802000040143C0
:1018E000952A07DC9620821AD1404842002BF3D17A
:1018F0000800F1E7963A9140F7E7C046FFFFFF7F07
:1019000070B5002812D0C317C5185D40C40F280059
:10191000FEF70EFE9E231B1A962B0FDC082838D0EC
:10192000083885406D026D0AD8B202E0002400201C
:101930000025C0052843E407204370BD992B14DC23
:10194000421F95402A001549114055071CD00F250C
:101950002A40042A18D00431CA08490115D59F230A
:101960005202181A550AC0B2E3E705222900121ADA
:10197000D14002001B3295402A00551EAA410A435D
:10198000064911405507E2D1CA085202550AD8B299
:10199000CFE76D026D0A8E30CBE7C046FFFFFFFB3D
:1019A00010B5041E0DD0FEF7C3FD9E231B1A962B07
:1019B0000CDC082834D0083884406402640AD8B2A9
:1019C00001E000200024C005204310BD992B13DC4A
:1019D000421F9440144A224061071CD00F2121402D
:1019E000042918D00432D408520115D59F2364026B
:1019F000181A640AC0B2E6E7020021001B329140C7
:101A00000A00511E8A410521091ACC401443064A96
:101A100022406107E2D1D4086402640AD8B2D2E756
:101A20006402640A8E30CEE7FFFFFFFBF0B54F463D
:101A30004646D646C0B582B0009001910E034C00D8
:101A4000CD0F710A009E5F00760F0E430099009241
:101A50000193C900894619037B0D9846019B490AE9
:101A6000DB0F9C46009B009A5B0F0B434146640DC5
:101A7000D200611A654500D1A6E0002972DD474613
:101A8000002F00D1DDE0CC4FBC4200D19AE101270C
:101A9000382917DC80273F043B431F2900DDDDE1A7
:101AA0002027781A1F008740BA461700CF40844687
:101AB00038005746074360468240CB40501E824163
:101AC000F61A17434B46DF1BB94580414042361A90
:101AD000330200D4FFE07602760A002E00D13CE10A
:101AE0003000FEF725FD0300083B20213800CA1A0C
:101AF000D0409E4002009F4032439C4200DDA6E160
:101B0000181B0130091A3E008F40C6407B1E9F41C2
:101B100013008B4037431F43C2403B001600002494
:101B2000134300D1DFE17B0700D132E30F233A00FA
:101B30003B40042B04D03A1DBA42BF417F42F61904
:101B4000330200D423E39C4B01349C4200D1B4E027
:101B50009A4B64051E40640D7707D208760217433E
:101B6000360BACE0002900D17EE04146091B002C79
:101B700000D060E134004846044300D1C9E14C1E66
:101B8000012900D12EE28C4DA94200D124E2012787
:101B9000382C11DC21001F2900DD0BE22024370046
:101BA0004846641AA740C84007434846A040CE4074
:101BB000441EA0419B1B0743D71BBA42924152428D
:101BC000654644469E1A83E7002900DC9CE04746B0
:101BD000002F67D11F00174300D1E4E0481E012900
:101BE00000D19BE1744FB94200D1EBE00127010025
:101BF000382811DC1F2900DDC7E12027781A1F00D3
:101C0000844687401000C840074360468240CB406E
:101C1000501E8241F61817434F444F4580414042C1
:101C20003618330257D5644B01349C4245D001210C
:101C3000624B7A081E4039400A43F707174376087B
:101C400071E71F00174300D1ADE04F1EBC460129CC
:101C500000D182E1584FB94200D190E1614601279D
:101C6000382900DD2EE718E7554F611C394200D0B6
:101C7000D0E0310048461F0001431743002C00D03C
:101C80003DE1002900D1BCE1002F00D0BFE14B466F
:101C90000021D80877070743F00806034C05360BE8
:101CA000640D0CE0444FBC4200D18BE00127382981
:101CB000B2DC80273F043B439CE700260027240535
:101CC0003443ED072C433800210002B0E0BCBA4693
:101CD000B146A846F0BD7B0704D00F233B40042B40
:101CE00000D028E7F808344B77070743F0089C42F8
:101CF00000D04AE23B00034359D080263603064316
:101D000036032D4C360BDAE7002961D04146091B1A
:101D1000002C00D1B9E0284CA04500D1A5E1012755
:101D2000382913DC8024240426431F2900DDC8E160
:101D3000202437004846641AA740C8400743484655
:101D4000A040CE40441EA0419B190743BF189742B4
:101D5000924152424446D61863E73800FEF7E8FB4A
:101D6000030018331F2B00DCBFE63A00083882401E
:101D70009C4200DD83E01B1B581C1F2800DCB4E1E3
:101D800017001F3BDF40202805D040231B1A9A4034
:101D9000531E9A4117430024002F0AD07B0700D01E
:101DA000C4E626009EE74B460C00D8089BE70027B8
:101DB000014C002683E7C046FF070000FFFF7FFFBE
:101DC000FE0700004B467707D8080743F00891E765
:101DD000CD4F611C39426BD1310048460143002C84
:101DE00000D04BE11F001743002900D181E1002FF3
:101DF00000D14CE74A444A458041F6184042361823
:101E0000330200D5B0E117009146374300D03EE7DA
:101E1000002654E74946891A8846C145BF41F11A50
:101E20007F42C91B0F0261D447460F4300D1BDE07A
:101E30000E00474651E6B54CA04500D100E1012710
:101E4000382900DDB8E6802424042643A3E6B04EFA
:101E5000E41A16407B0700D03FE743E70F00180065
:101E6000203FF8408446202903D04027791A8B4030
:101E70001A43531E9A41634617001F4322E6A448A3
:101E8000E11A10404707C00807E7340048460443FA
:101E900000D1FAE04C1E012900D1D7E09B4FB94296
:101EA00000D1E2E00127382C00DD4FE721003CE7BC
:101EB000964CA14200D1DDE04A444A458041F318E6
:101EC00040421818C707520817434608520705D062
:101ED0000F220C003A40042A00D02CE67607FF08B7
:101EE00037430009D9E600270026E8E64946571A95
:101EF000BA4292419E1B52426546B61AEDE5002950
:101F000000D0C6E0002F67D1802600257F4C360325
:101F1000D5E665460C001E00D008E4E64A444A4572
:101F20008041F318404218181100030200D496E0D3
:101F3000774B49081840C3070B434408490700D1B1
:101F400029E10F221A40042A00D1EAE01F1D9F4216
:101F5000B641764236190224C4E649468F1AB9457D
:101F60008041F61A4042361A330206D47307FF083E
:101F700001211F43F00890E665460124ABE54B467E
:101F80007707D8080743F008B4E60F001800203F91
:101F9000F8408446202903D04027791A8B401A4301
:101FA000531E9A41634617001F4335E6002500245F
:101FB000002684E60C003500203CE540202905D0B1
:101FC0004024611A8E404946314389464846411EA5
:101FD000884107002F43EFE5D2085F0765461743A6
:101FE000D80887E6171ABA4292419E1B5242B61A87
:101FF0003302C1D47307FF08654601211F43F0086F
:102000004BE6002F7BD065461E0091463FE6811AC5
:102010008846C145A441F11A6442091B8024240466
:10202000214277D0101A8242924107009E1B5242F1
:10203000B61A374300D0A0E06546002400263EE6ED
:102040005F07D20865461743D80853E681189142C6
:102050009241F01852428018030200D568E7470702
:10206000C9080F43C008012117E6D2085F071743CC
:10207000D8083FE60C000026002720E6002956D1AC
:102080005F07D2081743D80834E60C001E00D008BA
:1020900029E6C10870070143F008002F62D08024B0
:1020A0002403204207D0DE08264204D165463000D2
:1020B000D1085B0719434F0FC900C9087F070F43B9
:1020C00018E60C003000203CE0408446202905D072
:1020D0004024611A8E404946314389464846411E94
:1020E0008841614607000F4330E620210027091A86
:1020F0000EE51E00002F00D022E5002458E7002541
:1021000000240026DBE5C046FE070000FF070000B4
:10211000FFFF7FFF47460F4300D147E70E00C14650
:10212000B5E5DF086407022127430009B5E519007A
:10213000C008770707431143F008002900D1D9E50B
:1021400080210903084207D0DC080C4204D1D208E0
:102150005B071A43170020007B0FFF00FF085B0797
:102160001F43C7E50F00C5E5124BD20833405F0798
:102170005B02012417431E0BA1E5264212D00D4B32
:102180006546020001241E40E6E4210085E51700B3
:10219000A8E53A00D4E4DB0864071C4327000221C9
:1021A00000097AE5C0087707074365460021F00873
:1021B00073E5C046FFFF7FFFF0B5DE464546574654
:1021C0004E46E0B587B0009201930B031B0B9B4674
:1021D000CA0F4B00040080465B0D029200D198E0CC
:1021E0007C4A934237D05946420FC9000A438021A6
:1021F00009041143C2009046774A894692469A44A0
:10220000002300240393009E019F3B031B0B9B466E
:102210007B0030005B0DFD0F002B59D06D4A9342BF
:1022200048D05946720FC9000A438021090411435E
:102230008B466949F2008C4651466344CB1A9A4654
:102240000021029E6E40F6B20F2C00D9CEE0634B07
:10225000A4001B599F465A460243914600D090E085
:102260009A460223904608240393CCE7CB46424685
:10227000029D0399022900D1DEE1032900D18DE0FE
:10228000012900D079E12E0000220023002490468D
:102290001B052343F60733434046190007B0F0BC43
:1022A000BB46B246A946A046F0BD00220024904697
:1022B000484BEDE75A46009B1A43494B9C46E24483
:1022C000002A59D102231C43002302219B46B8E770
:1022D0005A46009B1A4349D05B46002B00D19CE133
:1022E0005846FEF725F9020003000B3A1D27009E11
:1022F000BA1A19005846D6400839884032000243BD
:102300009346009A8A40374953448A4600219A44AA
:1023100097E75B460343994621D05B46002B00D1EB
:1023200069E15846FEF704F90B235B429C46020024
:10233000844466461D239B1B260011005846DE4040
:102340000839884033000343994623008B40984660
:10235000254B00249B1A9A460023039353E700233E
:1023600098469A460133042403934CE701231C4307
:10237000002301219B4664E70323320003211C4311
:102380005FE79A460323D9460C2403933BE70023D7
:102390008024984600260F4B240379E780245B466F
:1023A00024031C4324032E0090460A4B240B6FE7A2
:1023B00080244B462403234202D05B462342F0D0C4
:1023C00080244B4624031C432403029E014B240B10
:1023D0005EE7C046FF07000001FCFFFF186C020823
:1023E00001F8FFFFF30300000DFCFFFFCB4500D217
:1023F000F8E000D1F3E001235B429C4644464846A6
:102400000025E2445B46170E1B021F43190C3B04D8
:10241000120200971F0C914602910397FDF720FFCF
:1024200002007A430B04210C804619438A4209D9E1
:10243000009F0123BC465B4261449C46E0448F42BE
:1024400000D85CE1881A0299FDF70AFF039A240478
:1024500042430904240C03000C43A24206D900990C
:10246000013B8C466444A14200D842E1A01A424696
:1024700012041A4393464B4659461B0C1F00049303
:102480000B0449460904090C0C001B0C5C43120C9C
:102490007B43884651437A43270CBC465B18634410
:1024A000994203D9802149028C466244190C2404C4
:1024B0001B04240C8A181C19904202D316D1A54281
:1024C00014D25B46009F013B4D4405934D459B4113
:1024D000BC465B426344C018874200D302E182429B
:1024E00000D929E100D124E1059B9B462C1BA54284
:1024F000AD41009B801A6D42401B834200D10FE129
:102500000299FDF7ADFE039A0B044243210C05002E
:1025100019438A4200D9CBE0881A0299FDF7A0FE40
:10252000039A240442430904240C03000C43A242EE
:1025300000D9CAE04146A41A2A041A43049F13048E
:102540001B0C594340467B439C46150C68430B0CBF
:10255000844463447D43984203D9802040028446EA
:102560006544180C09041B04090C40195B188442CB
:1025700027D323D0012335001A43944B5344002B17
:1025800060DD510700D086E02E00D1085A46D20106
:1025900006D55A468E4B1A4080239346DB0053449F
:1025A0008C4A934200DD80E65A4652070A43904621
:1025B0005A465B055402240B5B0D69E63500002B7F
:1025C000DBD0009D511EAC466444AC4200D29EE07C
:1025D000844200D2E1E000D1EEE00A00CAE74245C1
:1025E00000D908E74B46DC07580843465B081C4304
:1025F0004346DD0706E7FDF79BFF15239C46844411
:102600000200634620321C2B00DC92E623000838CF
:1026100083409946002398469AE6FDF789FF020019
:102620000300153220331C2A00DC5FE600990838CD
:10263000814000228B4666E600222E000024904650
:10264000654B25E62E000121C91A382900DD1BE65D
:102650001F297EDC6148140050445B468240834061
:10266000CC40501E824123431A435B46CB40510766
:1026700009D00F211140042905D0111D914292412A
:1026800052429B180A00190200D49BE00022012349
:1026900000249046FCE50F211140042900D173E786
:1026A000111D9142924152422E00C90893446DE798
:1026B000009B013D9C4661448B4200D92CE78A4235
:1026C00000D829E7851E614426E70099013B8C4626
:1026D0006444A14200D92DE7A24200D82AE7831E14
:1026E000644427E7874200D0FEE6A94500D9FBE60F
:1026F000F5E6A24200D8B9E6831E6444B6E68A42F3
:1027000000D89FE6BC46831E984661449AE60A00BC
:10271000844200D02EE74B4500D02BE735002CE754
:102720002A4B2F4A5344924543DB01220021934414
:102730002CE7AC4200D8D7E602235B429C460099C6
:102740004D444D459B41E3448C465B426344C01875
:10275000CCE61F204042C31A5846D840202904D056
:102760005946204B534499400A43531E9A4107232C
:102770001900024300241140134209D008331340CA
:10278000042B1DD0131D934289411A004942490769
:10279000D2080A43904600237AE54946009F4D003F
:1027A0004D458941BC4649426144A946023A6418F4
:1027B000AEE70122524246E79945EED30A00AAE766
:1027C0000021E5E759075B021C0BE1E7FF0300006E
:1027D000FFFFFFFEFE070000FF0700001E040000D1
:1027E00002FCFFFF3E040000F0B55746DE464E46B1
:1027F0004546E0B50D000400E80F83460903D80FF5
:10280000090B824619488C461F0369005E00490D7A
:102810003F0B760D814218D086420FD00120B14285
:102820000DD1BC450BD1944209D1D3451CD0002910
:1028300005D160462043431E984100E00120F0BCD2
:10284000BB46B246A946A046F0BD01208E42F6D155
:10285000614639430F0017432743F0D15B46524688
:10286000981A431E9841EAE70020E8E7FF070000B6
:10287000F0B557464E464546DE46E0B50D000E0320
:102880004900490D8A46DF0FE90FBC4683B02F4F40
:10289000040080460191580019039146360B090B3C
:1028A000400DBA451DD0B8420DD05746002F2AD151
:1028B0003443002824D10A4336D0002C41D163464A
:1028C0005800013815E0114338D15346002B01D18F
:1028D0002643F4D0019B634507D1019B5800013882
:1028E00007E026432AD1504521D00120019B5F42B9
:1028F000384303B0F0BCBB46B246A946A046F0BD83
:10290000002CDCD0E6E70028EFD0019B6345ECD13A
:102910008245EADCE1DB8E42E7D8DED1C845E4D867
:102920000020C845E5D2D8E7002CE2D0DDE711430E
:1029300004D1019B6345D8D10020DAE70220404250
:10294000D7E7019B6345E6D0CFE7C046FF0700000D
:10295000F0B557464E464546DE46E0B50D000E033F
:102960004900490D8A46DF0FE90FBC4683B02E4F60
:10297000040080460191580019039146360B090B5B
:10298000400DBA451ED0B8420DD05746002F27D172
:102990003443002833D10A4334D0002C40D163465D
:1029A0005800013815E0114312D15346002B01D1D4
:1029B0002643F4D0019B63451DD00120019B5F425B
:1029C000384306E0264303D15045F6D111431CD0CD
:1029D000022003B0F0BCBB46B246A946A046F0BDFB
:1029E0000028EAD0019B6345E7D18245E5DC02DBA4
:1029F0008E42E2D80ED0019B58000138E9E7002C46
:102A0000CDD0D7E7002CE4D0D7E7019B0020634569
:102A1000DFD0D2E7C845D0D80020C845D9D2EAE7F0
:102A2000019B6345E4D0C8E7FF070000F0B55746B7
:102A30004E46DE464546E0B51F000B031B0B160055
:102A40009A46CA0F4B000400914685B05B0D00D139
:102A5000CFE1CD4A934255D05146420FC9000A43B7
:102A6000802109041143C2009046C84A8A46934611
:102A70009B440023002502933C037B00FA0F019640
:102A8000240B5B0D009200D188E1BF4A934200D134
:102A900092E0BE4A944663449B440A2D42DCE40023
:102AA000730F23438024494624041C43F3000193FD
:102AB000009B00205940CBB20393022D00DC94E030
:102AC0000123AB401D00A6232A00DB001A401D4253
:102AD00000D029E290239B001D4200D14DE200234B
:102AE000802499462403A84B10004A461B05234323
:102AF000D2071343190005B0F0BCBB46B246A94645
:102B0000A046F0BD52460243904600D0ACE19B4641
:102B10000223924608250293AEE7009BA2469946FF
:102B2000019B9846029B022B00D1CAE1032B00D1E6
:102B300092E1012B10D1002300240022D4E70122CE
:102B40007B083A4013435246D207134398465346F4
:102B50005B089A46039B99465B46581C8023DB0022
:102B60005B44002B00DCB1E1424652070BD00F2240
:102B700041460A40042A06D04246111D4145924171
:102B80008846524292445246D20106D55246804B64
:102B90001A4080239246DB00C3187E4A934200DD30
:102BA0008FE14246D108524652070A4351465B051F
:102BB0004C02240B5B0D97E7734B26439C46E34482
:102BC000002E00D16FE1032349461D43009B59406D
:102BD000CBB203930A2D00DD33E10123AB401D008E
:102BE0000323029388222A4297D142464346120485
:102BF000120C160001981D0C030C0004000C464337
:102C0000B4461E006E430096160007005E43614600
:102C1000B0466F430E0CB8444644B74205D98021F4
:102C200049028846009F4744009761460904090C01
:102C3000370C36048C463100614401911100260C9A
:102C40002404240C61438C46210069438946614673
:102C5000090C884672434A4442447543914503D95E
:102C60008021490288464544110C88466146090482
:102C7000090C8C4612046244B91802915146090CA1
:102C80008C4651460F043F0C390041434544884669
:102C9000614641438A4641466046090C894658438D
:102CA0007B4353444B449A4503D9802149028946CA
:102CB0004844190C894641460904090C88463900E4
:102CC00061431B044344884661464C4371438C4630
:102CD000414677430E0C3F19F6194844B44203D9D4
:102CE000802149028946CC440299009F89463104DB
:102CF0004F4489464146974292410C04240C4C446F
:102D0000FF1852426419A1189F429B41884682468F
:102D10005B42994690459241AC42A441C244D144A1
:102D200052426442144399459B41824592415B4221
:102D3000524213434A46360CA419E31863445B021B
:102D4000D20D1A43019992467A020A43501E8241DB
:102D5000FF0D17434A4652021743B846DB0100D520
:102D6000EDE60D4B039A5B449146002B00DCACE092
:102D70003A00520700D110E70F2258463A40042A81
:102D800000D0F9E609E7C046FF07000001FCFFFF9D
:102D9000FFFFFFFEFE070000FF030000220032439A
:102DA0006FD0002C00D1C2E02000FDF7C1FB020073
:102DB00003000B3A1D20821A30001900D040083958
:102DC0008C400200224334008C405946CB1A86497D
:102DD0008B469B440A2D00DDA4E64946009B0194E6
:102DE0005940CBB2140000200393022D00DD67E6AA
:102DF000FBE65346034398463CD05346002B00D194
:102E0000A3E05046FDF794FB0B235B429C46020077
:102E1000844411005046083988401D23804660468E
:102E20001B1A2000D8400300404603439A46230063
:102E30008B4098466C4B00259B1A9B4600230293BF
:102E40001AE60F2D00D0C9E0802352461B031A4218
:102E500002D01C4200D192E08024534624031C433C
:102E600024034246240B3EE69B46032380460C2562
:102E7000029301E600239A469B4601330425029300
:102E8000FAE501210D430A2D00DD4BE64946009885
:102E90004140C9B20391022D00DC96E000230024DA
:102EA000012001930CE649460223009A2B4351402E
:102EB000CAB203920A2B00DD34E6002D57D1039BE2
:102EC000994600240022494B0EE658460121C91AB2
:102ED000382900DD2FE61F2956DD1F2254465242B5
:102EE000D31ADC40202907D0414B42469C4653462A
:102EF000604483401A43904642460721531E9A413C
:102F00000B00224313400024114209D00F23134029
:102F1000042B5DD0111D91429B410A005B425B076F
:102F2000D2081A430023DFE5039B9946FAE501988E
:102F3000FDF7FEFA02000300153220331C2A00DCE4
:102F400038E7019A083882403FE7FDF7F1FA152388
:102F50009C4684440200634620321C2B00DC58E768
:102F6000002398462300083883409A4662E71D00F4
:102F70000023002402200193A2E5029032E61C43C4
:102F8000009B019A9946AEE51A4B5246C31840463B
:102F90009A40C8400243404698400300581E83416F
:102FA00054461A43CC40530709D00F231340042B37
:102FB00005D0131D934292415242A4181A002302D5
:102FC00008D50123002400228EE5894600248BE5E4
:102FD0000023A5E763076402240BA1E7009BA24638
:102FE0009946019B984637E70DFCFFFFFF0700005D
:102FF0003E0400001E040000F0B557464E4645460C
:10300000DE46E0B583B0009001910C034D00CE0F79
:10301000610A009C5F00640F0C43009900920193C9
:10302000C80019037B0D9946019BCC4FDB0F9C46D2
:103030004B0A00998046490F1943009B8B46DA00E2
:1030400092466D0DB94500D1BFE00123614659405C
:103050004B468C46EB1A8E4275D0002B00DCA3E267
:103060004946002900D1CEE0BD4200D100E201274F
:10307000382B19DC802759463F0439438B461F2BD8
:1030800000DDFAE12027F91A8C4659466746B94017
:103090000F001100D9400F4361468A40511E8A41FA
:1030A0005946D9401743641AC71BB8428041404271
:1030B000241A230200D440E16402640A002C00D1E7
:1030C00054E12000FDF734FA0300083B20213800CA
:1030D000CA1AD0409C4002009F4022439D4200DD1E
:1030E000A6E1581B0130091A3C008F40C4407B1EEA
:1030F0009F4113008B4027431F43C2403B001400F5
:103100000025134300D1F7E17B0700D177E30F23BC
:1031100038003B40042B04D0381DB842BF417F42E9
:10312000E419230200D468E38C4B01359D4200D1A1
:10313000F4E08B4B6D051C406D0D6707C008640201
:103140000743240BECE0002B00DC29E3494600296F
:1031500000D0D6E05946114300D12EE1591E012B73
:1031600000D1E6E1BB4200D182E101270B00382902
:1031700014DC1F2B00DD3CE22027F91A8C4659464F
:103180006746B9400F001100D9400F4361468A409D
:10319000511E8A415946D940174364183F18874247
:1031A000804140422418230200D4C6E06B4B013515
:1031B0009D4200D1B2E00121694B7A081C403940A0
:1031C0000A43E707174364089EE7664B11438A46A4
:1031D000EB18002928D066452CD0002B5BD0002DA1
:1031E00000D12CE15B4666465F07D2081743DD0835
:1031F0003B002B4300D1E2E0802424032C43240332
:10320000564D240B8CE05946114300D1D5E0591E90
:10321000012B00D1B9E1BB4200D1B1E101270B0084
:10322000382900DD40E72AE76146012779408C46CE
:103230006645D2D1002B00D1C5E0002D00D055E16C
:103240004B462500054300D112E2591E8C46012B46
:1032500000D149E2414DAB4200D18FE2012738292C
:1032600011DC63461F2B00DD5BE261462023270053
:103270005B1A050098409F40CD40431E9841CC40CA
:103280002F430743A344BF189742924152425A44E6
:1032900014004D4687E7344F6B1C3B4200D0B6E02C
:1032A0005946230011430F000343002D00D026E1AF
:1032B000002B00D1C0E1002900D1A1E0831A98467B
:1032C0005B464045AD41E31A6D425B1B80252D04F2
:1032D0002B4200D14BE15B46101A824292411C1BEB
:1032E0000700012663465242A41A27431E40002FBE
:1032F00000D142E12C4200D16DE2194B01251C4066
:103300001BE7BD4200D13BE10127382B00DD45E73B
:10331000802759463F0439438B462AE7002400277B
:103320002D052543F60735433800290003B0F0BCCE
:10333000BB46B246A946A046F0BD7B0704D00F238A
:103340003B40042B00D0E7E62B00F808034A670750
:103350000743E508934200D14AE7A5E0FF070000D4
:10336000FFFF7FFF01F8FFFFFE0700003800FDF7B9
:10337000DFF8030018331F2B00DCA7E63A000838FB
:1033800082409D4200DD8AE05B1B581C1F2800DC48
:10339000D8E117001F3BDF40202805D040231B1A2F
:1033A0009A40531E9A4117430025002F00D1E5E0B3
:1033B0007B0700D0ABE62C00C6E7C008C6E70027B5
:1033C0000024D14DACE7D14F6B1C3B4271D123009F
:1033D0000343002D00D04EE15746002B00D1B5E14C
:1033E000002F0DD08318834280415C444042241852
:1033F000220200D5C8E11F009846274300D1BCE057
:1034000043466707DB081F43E50800234CE0831AA7
:1034100098465B464045BF41E31A7F42DB1B1F02D3
:103420007CD447461F4300D1A6E01C00474645E632
:10343000B74CED1A14407B0700D080E784E74B4679
:103440002500054366D05F1E012B00D1FCE0AE4D88
:10345000AB4200D15EE16646382F00DCB4E00120CB
:10346000171ABA4292415B4652424D469C1A20E6D8
:103470006707C0080743E508BAE61F005946203F22
:10348000F9400F00202B05D04021CB1A5946994016
:103490000A43924653465A1E93411F4304E6EB1AD1
:1034A0009B4D15406F07ED082C035D05240B6D0D3A
:1034B00036E7954DAB4200D1D6E08218210082421A
:1034C0008041594440420818C7075208174344082E
:1034D000520700D485E10F221D003A40042A00D093
:1034E0001AE6FF08640727430509DDE75B46D208B3
:1034F0005F071743DD087BE60027002410E7002B59
:1035000000D0D6E0002900D02FE1802400267E4D97
:10351000240305E766465C46D00817E75B46171AA2
:10352000BA4292411C1B012663465242A41A1E4015
:10353000C4E58318834280415C44404225182A0236
:1035400000D4DAE0724A5B081540EA071A436908BA
:103550005B0700D44AE10F231340042B00D1FCE0A9
:10356000171D9742A441644202256418ECE64746C1
:103570001C001F4300D043E7002600250024CFE6AF
:10358000C00867070743E50832E6871A5B46B8427A
:103590008041E41A4042241A230228D46307FF081A
:1035A0001F43E50801237FE7002B00D173E64B465C
:1035B0005F1B3B00002D00D142E7382F00DDECE01F
:1035C00080230E001B041C431F2F25DC2025230015
:1035D000ED1B0100A840AB40F940451EA8410B433C
:1035E000FC4018435B461B1B9B4639E7664601259A
:1035F00062E51F005946203FF9408C46202B05D03C
:1036000040275946FB1A99400A43924657467B1E6B
:103610009F4163461F43C1E53B002500203BDD4041
:10362000202F04D04023DB1B9C4020438046404693
:10363000431E9841284313E700299DD00126634685
:103640005C4690461E40DBE6171A5B46BA42924142
:103650001C1B5242A41A2302C8D46307FF081F434D
:1036600066460123E5081FE71D000024002757E6F2
:103670005C46D0086AE6002B00D137E75346C00805
:1036800067070743E508002B00D1B1E580231B0342
:103690001D4208D05946C808184204D1D20849072B
:1036A0000A43170005007B0FFF00FF085B071F435D
:1036B0009EE5C00863071843E508002953D080231E
:1036C0001B031D420AD05946CC081C4206D10126D4
:1036D00063462500D008490708431E40470FC00035
:1036E000C0087F07074383E58318934292415C44F7
:1036F0005242A5182A0200D524E76F07DB081F43B2
:10370000ED080123D0E6C046FF070000FE070000D9
:10371000FFFF7FFF5B46D2085F0766461743DD0861
:1037200066E52500203BDD406346202B05D0402385
:1037300061465B1A9C402043804647467B1E9F4162
:103740002F43A0E520210027091AD2E4002F00D141
:1037500013E75C4617000025F6E5D7084907022362
:103760000F432D09A0E6070042E55B4601265F07EF
:10377000DD086346D20817431E4039E55B46D20890
:103780005F071743DD0833E51E4ADB082240570771
:10379000520201251F43140BC2E50E0001205FE613
:1037A000002B0DD04B465B1B9C46002D00D148E5FD
:1037B0000127382B00DD66E580231B041C4350E500
:1037C0006B1C114D2B4200D073E659462300114368
:1037D0008A46034300E66707C00800230743E5085D
:1037E00062E66407FF08274305095DE6D20849073A
:1037F00011430F0002232D0956E60700A4E5380007
:103800008FE4C046FFFF7FFFFE070000F0B5C6460D
:103810001E03360BB0460D4E0C034D005F0000B585
:10382000240B6D0D7F0DB5420BD0084900208F424F
:1038300004D1464616433000431E984180BCB8462A
:10384000F0BD04430120002CF8D1EEE7FF07000093
:103850000B00020070B5164D0C0382B04900002029
:1038600000920193240B490DDE0FA94204DD11489B
:10387000814203DD104BF01802B070BD8020400380
:1038800020430E4C641A1F2C08DD0D4B5B1AD840E8
:1038900003005842002EEFD11800EDE7094B009AC3
:1038A0009C46030061448B40E2401343F1E7C0466D
:1038B000FE0300001D040000FFFFFF7F3304000033
:1038C00013040000EDFBFFFF70B5002816D0C317EE
:1038D000C5185D40C40F2800FCF72AFE104B1B1AC8
:1038E0005B055B0D0A2814DC02002E0015329640A1
:1038F0000B22121AD5402D032D0B03E000240023C8
:10390000002500261B052B43E40723433000190044
:1039100070BD0B3885402D0300262D0BF2E7C04605
:103920001E04000010B5041E10D0FCF701FE0E4B63
:103930001B1A5B055B0D0A280FDC0B222100121AF3
:10394000D14015300A038440120B01E0002300220D
:103950001B0513432000190010BD22000B388240C4
:1039600012030024120BF3E71E04000070B542029C
:103970004300C40FFE201B0E591C550A08420CD0F0
:10398000E02189008C466D07120B63441B0513432D
:10399000E40723432800190070BD002B14D1002D2B
:1039A0001BD02800FCF7C4FD0A281CDC0B232A00CE
:1039B0001B1ADA40030015339D400E4B12031B1AED
:1039C0005B05120B5B0DE1E7002D09D0130B802284
:1039D00012031A436D07084BD8E700230022D5E7EE
:1039E0000022054BD2E703002A000B3B9A4000253A
:1039F000E3E7C04689030000FF070000F0B54B0075
:103A00000F035B0D3A4C450F83B07F0A5E1C2F43BA
:103A100000900191CA0FC50026420BD035495C18B1
:103A2000FE2C13DDFF200023C0051843D2071043EE
:103A300003B0F0BD3D43002B01D10020F4E7002D81
:103A4000F0D08023DB03FF203B43EDE7002C0CDDAF
:103A5000009BFF009B01581E8341690F3B430B43B2
:103A6000590727D1DB08E0B2DEE72100173131DB4F
:103A700080211E2009043943001B1F282DDD02264A
:103A80007642341B0E00E6403400202804D01A4849
:103A90008446634499400D432B00591E8B412343B8
:103AA000590703D00F21194004290BD19B01002095
:103AB0005B0AB9E70F211940042904D19B015B0A75
:103AC000E0B2B1E7002404335901F7D501340023F3
:103AD000E0B2A9E700200023A6E7084C1C192B0040
:103AE000A540C340A140681E854129430B43D7E749
:103AF000FE07000080FCFFFFA2FCFFFF82FCFFFF2F
:103B000010B5002903D1FCF713FD203002E00800B6
:103B1000FCF70EFD10BDC046F0B54F464646D646F2
:103B2000C0B506000F001000190082B0002F5DDB49
:103B300034003D00002B0BDB16001F00AB4217D9F1
:103B40000020002102B0E0BCBA46B146A846F0BD54
:103B5000002746428F41AF42F2D800D1A0E00123B6
:103B60005B42994609E0002746428F41AF42E7D8C1
:103B7000AF4200D190E00023994639003000FFF7B2
:103B8000BFFF804629002000FFF7BAFF43461B1AFB
:103B90009846203B75D4310099409A460B0031007D
:103BA000404681400A00AB422ED82BD05146A41A81
:103BB0009D41002900DA90E00021002001260090BC
:103BC000019151468E400196414601268E40414664
:103BD000009600291FD1009801994B46002BB1D0C7
:103BE00003000C0000215842A141ABE700257442BC
:103BF000BD41002BB7DB16001F00AB42A0D8AF427F
:103C0000ADD14DE0A142D1D9002100200090019119
:103C100041460029DFD0D90756085F080E434346C6
:103C20000EE0AF4201D1A6420CD8A41BBD41012138
:103C300024196D410022013B64185541002B06D028
:103C4000AF42EED9013B24196D41002BF8D1009A07
:103C5000019B514612196B41002925DB2E002C00D7
:103C6000CE404146CC40514600292DDB34008C40EB
:103C700021004446A6403000121A8B410092019365
:103C8000A9E7424638009A462023310090409B1A0B
:103C9000D94003000B4382E7A64200D950E76AE708
:103CA000A64200D85BE74BE740462021091A2800CE
:103CB0008840260001004046C6402C000E43414685
:103CC000CC4051460029D1DA4046202135008440BD
:103CD000091ACD4021002943CBE741462026012780
:103CE000761A00200021F7400090019101976BE7C0
:103CF00080B500AFBFF34F8FC046044B044ADA6073
:103D0000BFF34F8FC046C046FDE7C04600ED00E060
:103D10000400FA0580B500AF0AF080F900F042F81F
:103D200000F006FC00F070FD00F002FC00F0DAFB91
:103D300000F090FB1BF02EF800F0C8F900F00CFB2F
:103D400000F084F900F028FA00F0BEF800F00CFA58
:103D500000F0C2FA114B0122202118000CF03BFEAA
:103D600064200AF0D9F90E4B180007F061FF08F043
:103D700003FF09F037FC01F0DDFB18F0CFFF01F085
:103D8000F3FB08F01BF808F015FF07F0EDFE09F053
:103D90009FFC00F0A1FC30BFC046EEE700040050DD
:103DA000F402002090B59FB000AF2C243B191800FE
:103DB0004C231A0000211DF0C1F81C23FB18180029
:103DC00010231A0000211DF0B9F83B1D180018231C
:103DD0001A0000211DF0B2F880239B00180010F09B
:103DE00051FE10F007FE364A9023D358344918226A
:103DF000934390228B503B1936221A603B19812243
:103E00009A603B1980225200DA6021007B18402220
:103E10001A617B180122DA617B1800221A627B1872
:103E2000B0225A627B1801229A627B180022DA6261
:103E30007B18180010F088FF031E01D000F011FD60
:103E40001C217B1807221A607B1800225A607B18FD
:103E500000229A607B180022DA607B18012118008A
:103E600011F09CFB031E01D000F0FBFC144B9A6D7B
:103E7000134B802149020A439A65114B9A6D8023A6
:103E80005B0213403B603B683B1D00221A603B1DF8
:103E9000802292055A603B1D00229A603B1D094A10
:103EA000DA603B1D22221A613B1D20225A613B1D14
:103EB000180011F08DFFC046BD461FB090BDC04632
:103EC000001002407FBB000080B58AB000AF1C2309
:103ED000FB1818000C231A0000211DF02FF83B1DC1
:103EE000180018231A0000211DF028F84F4B504AE3
:103EF0001A604E4BC02212065A604C4B00229A6048
:103F00004A4B0022DA60494B802212061A61474B65
:103F100004225A61454B00221A76444B00225A76FD
:103F2000424B00229A76414B0122DA613F4B20221C
:103F3000002199543D4B00225A623C4B00229A6268
:103F40003A4B2C2200219954384B00221A63374BEC
:103F500007225A63354B3C2200219954334B0022EF
:103F6000DA64324B18000AF045FB031E01D000F062
:103F700078FC1C217B182F4A1A607B1801225A609A
:103F80007A182A4B110018000AF078FF031E01D09E
:103F900000F067FC1C217B18274A1A607A18234B13
:103FA000110018000AF06AFF031E01D000F059FC4E
:103FB0001C217B18214A1A607A181C4B110018002A
:103FC0000AF05CFF031E01D000F04BFC1C217B18A3
:103FD0001B4A1A607A18154B110018000AF04EFFA0
:103FE000031E01D000F03DFC3B1D164A1A603B1D2C
:103FF000C02212045A603A1D0C4B110018000BF03D
:10400000A9F8031E01D000F02CFC3B1D0E4A1A60DB
:104010003A1D064B110018000BF09CF8031E01D04E
:1040200000F01FFCC046BD460AB080BDF40200206F
:1040300000240140001000B000400038000002449D
:10404000002000B4FFFF1700FFFF270080B500AF7E
:104050001B4B1C4A1A601A4B1B4A5A60184B002211
:104060009A60174B0122DA60154B00221A61144B3B
:1040700000225A61124B00229A61114B0022DA6130
:104080000F4B00221A620E4B18000CF0FFFC031EAF
:1040900001D000F0E6FB0A4B002118000DF0FAFAFF
:1040A000031E01D000F0DDFB054B002118000DF0D0
:1040B0003DFB031E01D000F0D4FBC046BD4680BDD1
:1040C0005803002000540040FD3E302080B582B0EF
:1040D00000AF3B00180008231A0000211CF02EFF3F
:1040E0001E4B1F4A1A601D4B00225A601B4B802238
:1040F00012019A60194B1B4A5A61184BFA2212019D
:104100001A62164B8022D2035A62144B00229A6222
:10411000124B0022DA62114B00225A630F4B180037
:104120000DF050FB031E01D000F09BFB3B00002272
:104130001A603B0000225A603900084B0022180028
:104140000EF0AAF8031E01D000F08BFB034B180001
:1041500000F0DEFCC046BD4602B080BDAC030020CE
:1041600000940040FFFF000080B500AF084B094AF3
:104170001A60074B00225A60054B180011F06EFEC2
:10418000031E01D000F06DFBC046BD4680BDC04699
:10419000040400200050024080B592B000AF3423E8
:1041A000FB18180014231A0000211CF0C7FE30234E
:1041B000FB1800221A603B00180030231A0000216F
:1041C0001CF0BCFE414B424A1A60404B00225A6030
:1041D0003E4B7F229A603D4BFF22DA603B4B002230
:1041E0001A613A4B00225A61384B00229A61374BD0
:1041F0008022D205DA61354B00221A62334B00224D
:104200005A62324B180011F0E5FF031E01D000F096
:1042100028FB34217B1800221A707B1800225A7068
:104220007B1800229A707B180022DA607B1800222B
:104230001A617918254B0122180012F071F8031E3B
:1042400001D000F00EFB30217B1801221A707B1880
:1042500001225A707B1801229A707B180022DA70B2
:1042600079181A4B0122180012F07EF9031E01D0B2
:1042700000F0F7FA3B0000221A703B0000225A704F
:104280003B0000229A703B0000225A603B00114A1A
:104290005A613B0000229A613B0000221A623B00F7
:1042A0002422012199543B0080225200DA62390015
:1042B000064B0122180012F04BFA031E01D000F049
:1042C000D0FAC046BD4612B080BDC04618040020DA
:1042D000002800408000008080B500AF1C4B1D4AC4
:1042E0001A601B4B822252005A60194B8022D20066
:1042F0009A60174BF0221201DA60154B02221A6104
:10430000134B00225A61124B802292009A61104B8B
:104310002822DA610E4B00221A620D4B00225A62EB
:104320000B4B00229A620A4B0722DA62084B0022EA
:104330001A63074B00225A63054B180012F025FC44
:10434000031E01D000F08DFAC046BD4680BDC046B8
:10435000480400200030014080B58EB000AF282313
:10436000FB18180010231A0000211CF0E7FD1C2385
:10437000FB1818000C231A0000211CF0DFFD3B0085
:1043800018001C231A0000211CF0D8FD304B80229D
:10439000D2051A602E4B00225A602D4B00229A60E3
:1043A0002B4B3B22DA602A4B00221A61284B002259
:1043B0009A61274B180013F073FD031E01D000F023
:1043C00050FA28217B18802252011A607A18204B5B
:1043D0001100180014F006FB031E01D000F041FA92
:1043E0001B4B180013F0B4FD031E01D000F039FA86
:1043F0001C217B1800221A607B1800229A607A1810
:10440000134B1100180015F0AFF8031E01D000F097
:1044100028FA3B0060221A603B0000225A603B00F1
:1044200000229A603B0000221A613900084B0022EA
:10443000180014F0D7F9031E01D000F012FA044B53
:10444000180000F029FDC046BD460EB080BDC04634
:104450000C05002080B500AF204B214A1A601F4B8D
:1044600008221A711D4B02225A711C4B0222DA716A
:104470001A4B00221A72194B00225A72174B002253
:104480009A72164B0022DA72144B18000EF02AFDB5
:10449000031E01D000F0E5F910482023002200217E
:1044A00010F02CFA0D4860230022802110F026FA2B
:1044B0000A48A0230022812110F020FA0748E023B7
:1044C0000022822110F01AFA0448F023002203216E
:1044D00010F014FAC046BD4680BDC046B8050020A5
:1044E000005C004080B582B000AF104B9A6C0F4B5F
:1044F00001210A439A640D4B9B6C012213407B609F
:104500007B680022002109200BF08AFB09200BF0B8
:104510009CFB002200210A200BF082FB0A200BF0FA
:1045200094FBC046BD4602B080BDC04600100240AC
:1045300090B58BB000AF14243B19180014231A0057
:1045400000211CF0FBFC614BDA6C604B04210A4338
:10455000DA645E4BDB6C042213403B613B695B4BCE
:10456000DA6C5A4B01210A43DA64584BDB6C0122A6
:104570001340FB60FB68554BDA6C544B02210A4335
:10458000DA64524BDB6C02221340BB60BB684F4BBA
:10459000DA6C4E4B20210A43DA644C4BDB6C202250
:1045A00013407B607B6880235900A023DB05002239
:1045B00018000CF010FA464B0022302118000CF0C5
:1045C0000AFA3B1901221A603B1900225A603B1972
:1045D00000229A603A19A023DB05110018000CF0A4
:1045E00069F83B1904221A603B19C42292035A60ED
:1045F0003B1900229A603A19A023DB05110018002C
:104600000CF058F83B1908221A603B19C422920397
:104610005A603B1900229A603A19A023DB05110069
:1046200018000CF047F821007B18802252001A6015
:104630000C003B1901225A603B1900229A603B1979
:104640000022DA603A19A023DB05110018000CF0F3
:1046500031F83B1908221A603B1900225A603B19B5
:1046600001229A603B191A4A190010000CF022F836
:104670003B1930221A603B1901225A603B19002273
:104680009A603B190022DA603B19114A19001000A8
:104690000CF010F821007B1808221A607B18002209
:1046A0005A607B1800229A607B180A4A1900100091
:1046B0000CF000F80022002106200BF0B1FA0620D1
:1046C0000BF0C3FAC046BD460BB090BD00100240CF
:1046D000000400500014005080B500AF044B1B785C
:1046E000DBB2002B01D0FFF703FBC046BD4680BD07
:1046F0009408002080B588B000AF0023FB6118E06B
:1047000080235900A023DB05012218000CF063F977
:10471000642009F001FD80235900A023DB0500225D
:1047200018000CF058F9642009F0F6FCFB6901331D
:10473000FB61FB69012BE3DD72B6C0462A4B032205
:104740001A642A4B18000DF08FF910F05FFA284B0D
:1047500000221A60264B00225A60254B00229A60E4
:104760001B23FB1800221A7015E022491B203B185E
:104770001B7820339B00012252425A501D493B189E
:104780001B7860339B00012252425A503B181A7822
:104790003B1801321A701B23FB181B78002BE4D046
:1047A000154B1A6E144B01210A431A66124B1B6EED
:1047B000012213407B607B68104B01221A60104B72
:1047C0001B687B610F4B1B683B617B69BB60BB68EF
:1047D00083F30888C04662B6C0463B69FB60FB684D
:1047E0009847C046FDE7C046005C0040AC0300208F
:1047F00010E000E000E100E0001002400000014095
:104800000000FF1F0400FF1F80B582B000AFA0238F
:10481000DB05042118000CF0C1F80300012B1AD1AC
:1048200009F070FC03007B60A023DB050421180065
:104830000CF0B4F8031E10D009F064FC02007B6891
:10484000D21AFA23DB009A4201D3FFF753FF0A2062
:1048500009F062FCE8E7C04600E0C046BD4602B091
:1048600080BD80B500AF72B6C046C046FDE700000F
:1048700080B582B000AF0F4B9A6D0E4B8021490579
:104880000A439A650B4B9A6D80235B0513407B604E
:104890007B68084B1A6E074B01210A431A66054BC9
:1048A0001B6E012213403B603B68C046BD4602B010
:1048B00080BDC0460010024090B59DB000AF78604A
:1048C0005C23FB18180014231A0000211CF036FB8F
:1048D00018243B19180044231A0000211CF02EFB59
:1048E0007B681B68364A934265D13B198022D2010E
:1048F0001A603B1980229205DA633B19180011F007
:1049000041F8031E01D0FFF7ACFF2E4B1A6E2D4B62
:10491000802149030A431A662A4B1A6E80235B03DF
:1049200013407B617B69274BDA6C264B01210A43DC
:10493000DA64244BDB6C012213403B613B69214B61
:10494000DA6C204B02210A43DA641E4BDB6C022234
:104950001340FB60FB685C243B1980221A603B1902
:1049600003225A603B1900229A603A19A023DB0502
:10497000110018000BF09EFE3B1901221A603B1932
:1049800003225A603B1900229A603B190E4A190013
:1049900010000BF08FFE002200210C200BF040F9DC
:1049A0000C200BF052F9002203210C200BF038F9F7
:1049B0000C200BF04AF9C046BD461DB090BDC04664
:1049C00000240140001002400004005090B59BB04C
:1049D00000AF78605423FB18180014231A0000213C
:1049E0001CF0ACFA10243B19180044231A000021D3
:1049F0001CF0A4FA7B681B68224A93423DD13B1904
:104A000020221A603B1900229A613B19180010F00D
:104A1000B9FF031E01D0FFF724FF1B4BDA6C1A4BC2
:104A200002210A43DA64184BDB6C02221340FB605C
:104A3000FB6854217B18C0221A607B1812225A602E
:104A40007B1801229A607B180022DA607B1804220E
:104A50001A617B180D4A190010000BF02BFE0A4B4F
:104A60009A6D094B802189030A439A65064B9A6D1A
:104A700080239B031340BB60BB68C046BD461BB090
:104A800090BDC04600540040001002400004005099
:104A900090B595B000AF78600C243B191800442302
:104AA0001A0000211CF04AFA7B681B68164A9342E0
:104AB00025D13B19802252001A603B1980229203B3
:104AC0005A623B19180010F05DFF031E01D0FFF77A
:104AD000C8FE0E4B9A6D0D4B8021C9050A439A659D
:104AE0000A4B9A6D8023DB051340BB60BB68002234
:104AF000002112200BF094F812200BF0A6F8C0460B
:104B0000BD4615B090BDC046009400400010024064
:104B100090B589B000AF78600C243B1918001423BD
:104B20001A0000211CF00AFA7B681B68144A9342A1
:104B300022D1144BDA6C134B01210A43DA64114B76
:104B4000DB6C01221340BB60BB6821007B18102284
:104B50001A607B1802225A607B1800229A607B1828
:104B60000022DA607B180E221A617A18A023DB0576
:104B7000110018000BF09EFDC046BD4609B090BD67
:104B8000009400400010024080B582B000AF786011
:104B90007B681B68074A934208D1074B9A6D064B06
:104BA00006490A409A6512200BF05FF8C046BD46E0
:104BB00002B080BD0094004000100240FFFFFFBF24
:104BC00090B595B000AF78600C243B1918004423D1
:104BD0001A0000211CF0B2F97B681B68124A93424C
:104BE0001DD13B19802292011A603B198022D20408
:104BF0009A633B19180010F0C5FE031E01D0FFF7A1
:104C000030FE0A4B9A6C094B8021C9020A439A6410
:104C1000064B9A6C8023DB021340BB60BB68C04626
:104C2000BD4615B090BDC046005002400010024085
:104C300090B595B000AF78600C243B191800442360
:104C40001A0000211CF07AF97B681B681A4A93420B
:104C50002ED13B19802212021A603B198022520089
:104C60001A643B19180010F08DFE031E01D0FFF7E7
:104C7000F8FD124A9023D3581049802212021343A0
:104C800090228B500D4B9A6D0C4B8021C9000A432A
:104C90009A650A4B9A6D8023DB001340BB60BB68AA
:104CA0000022002102200AF0BBFF02200AF0CDFF03
:104CB000C046BD4615B090BD00280040001002401F
:104CC00090B58BB000AF786014243B191800142302
:104CD0001A0000211CF032F97B681B68404A93429D
:104CE0007AD1404B1A6E3F4B802149010A431A6624
:104CF0003C4B1A6E80235B0113403B613B69394B8F
:104D0000DA6C384B01210A43DA64364BDB6C012242
:104D10001340FB60FB683B1920221A603B190222FA
:104D20005A603B1900229A603B190222DA603B1953
:104D300005221A613A19A023DB05110018000BF0B7
:104D4000B9FC21007B1840221A607B1802225A60AD
:104D50007B1802229A607B180222DA607B180522F7
:104D60001A617A18A023DB05110018000BF0A2FCD1
:104D70001D4B1E4A1A601C4B24225A601A4B0022FB
:104D80009A60194B0022DA60174B80221A61164B89
:104D9000802252005A61144B8022D2009A61124B39
:104DA0000022DA61104B802252011A620E4B180069
:104DB0000AF078FF031E01D0FFF753FD7B680A4A13
:104DC0009A65094B7A689A620022002119200AF03C
:104DD00027FF19200AF039FFC046BD460BB090BD31
:104DE0000030014000100240AC04002008000240E6
:104DF00080B584B000AF78607B681A688023DB05DB
:104E00009A423FD1214B9A6D204B01210A439A656A
:104E10001E4B9B6D01221340FB60FB681C4B1D4A1F
:104E20001A601B4B30225A60194B10229A60184BA3
:104E30000022DA60164B80221A61154B8022920004
:104E40005A61134B802212019A61114B0022DA61E0
:104E50000F4B802292011A620D4B18000AF022FFBC
:104E6000031E01D0FFF7FDFC7B68094A5A62084B1C
:104E70007A689A62002200210F200AF0D1FE0F20EA
:104E80000AF0E3FEC046BD4604B080BD00100240FB
:104E9000580500201C00024090B589B000AF786032
:104EA0000C243B19180014231A0000211CF046F8AA
:104EB0007B681A688023DB059A4223D1134BDA6C96
:104EC000124B01210A43DA64104BDB6C01221340C0
:104ED000BB60BB683B19802212021A6021007B185C
:104EE00002225A607B1800229A607B180022DA6046
:104EF0007B1801221A617A18A023DB051100180023
:104F00000BF0D8FBC046BD4609B090BD0010024072
:104F100090B595B000AF78600C243B19180044237D
:104F20001A0000211CF00AF87B681B68174A93429C
:104F300027D13B19802252011A603B19C022120569
:104F40005A633B19180010F01DFD031E01D0FFF736
:104F500088FC0FF04DFE0E4B9A6D0D4B80218901A0
:104F60000A439A650A4B9A6D80239B011340BB60EC
:104F7000BB680022002108200AF052FE08200AF037
:104F800064FEC046BD4615B090BDC046005C004002
:104F90000010024080B500AFC046FDE780B500AF0D
:104FA000C046FDE780B500AFC046BD4680BD80B5B8
:104FB00000AFC046BD4680BD80B500AF09F090F897
:104FC000C046BD4680BD80B500AF04200BF020FD7B
:104FD00008200BF01DFDC046BD4680BD80B500AF6A
:104FE000034B180011F00AFDC046BD4680BDC04607
:104FF0001804002080B500AF034B18000EF0B0F885
:10500000C046BD4680BDC046B805002080B500AF93
:10501000034B18000BF040F8C046BD4680BDC046AB
:10502000AC04002080B500AF034B18000BF034F83F
:10503000C046BD4680BDC0465805002080B500AFC3
:10504000034B180009F0A8FDC046BD4680BDC04610
:10505000F402002080B500AF034B180013F0BAFA39
:10506000C046BD4680BDC0460C05002080B500AFDF
:10507000034B18000DF083F9C046BD4680BDC04605
:10508000AC03002080B500AF034B180012F01EFAED
:10509000C046BD4680BDC0464804002080B500AF74
:1050A00001231800BD4680BD80B582B000AF786096
:1050B00039601BF0E3FF030016221A6001235B42F4
:1050C0001800BD4602B080BD80B582B000AF7860E8
:1050D00001235A427B6811001800FFF7E5FFC04624
:1050E000FDE780B586B000AFF860B9607A60002354
:1050F0007B610AE000E000BF0100BB685A1CBA6097
:10510000CAB21A707B6901337B617A697B689A4203
:10511000F0DB7B681800BD4606B080BD80B586B068
:1051200000AFF860B9607A6000237B6109E0BB687A
:105130005A1CBA601B78180000E000BF7B6901337D
:105140007B617A697B689A42F1DB7B681800BD4617
:1051500006B080BD80B582B000AF786001235B42AD
:105160001800BD4602B080BD80B582B000AF786047
:1051700039603B68802292015A6000231800BD46C6
:1051800002B080BD80B582B000AF78600123180006
:10519000BD4602B080BD80B584B000AFF860B96094
:1051A0007A6000231800BD4604B080BD80B586B08B
:1051B00000AF7860144A154BD31A7B617B693B6161
:1051C000134B1B68002B02D1114B124A1A60104B73
:1051D0001A687B68D3183A699A4207D21BF04EFFCF
:1051E00003000C221A6001235B4209E0084B1B6894
:1051F000FB60074B1A687B68D218054B1A60FB6886
:105200001800BD4606B080BD00A0002000040000CC
:10521000980800209869002080B582B000AF124B3A
:10522000802212059A60114A8023D3587B600F4B6D
:105230001B6A3B607A6880235B02134010D03B6896
:10524000FF221340CC2B0BD03B68FF221340AA2B2C
:1052500006D0064B1A68054B8021C9020A431A6022
:10526000C046BD4602B080BD00ED00E00020024017
:1052700080B586B000AF0200FB1D1A7078233B6139
:105280007823FB60FB1D1B78022B02D9FB1D022239
:105290001A70FB1D1B78002B2AD01723FB18002245
:1052A0001A701DE080235900A023DB05012218009D
:1052B0000BF091FB3B69180008F02EFF802359008A
:1052C000A023DB05002218000BF085FBFB6818000B
:1052D00008F022FF17217B181A787B1801321A7008
:1052E0001723FA18FB1D12781B789A42DAD300E0D4
:1052F000C046BD4606B080BD80B584B000AF7860C2
:105300007B68002B0DD00023FB607B681800FAF748
:1053100005FF01000C23FA187B68180019F050FEF5
:1053200000E0C046BD4604B080BD0FB490B5B5B036
:1053300000AFDC2308215B18DB197B607B68D82277
:105340005218D219126808243819C8211BF0EAFD36
:105350003B191800FFF7D0FFC046BD4635B090BCE2
:1053600008BC04B0184780B584B000AF0200FB1D34
:105370001A700023FB600C23FA18FB1D0121180092
:1053800019F01EFEC046BD4604B080BD80B500AF1A
:10539000034B1800FFF7B0FFC046BD4680BDC046B6
:1053A000C056020880B500AF034B1800FFF7A4FFFA
:1053B000C046BD4680BDC046C456020890B59BB0ED
:1053C00000AF786002E07B6801337B607B681B780C
:1053D000202BF8D07B681B78092BF4D07B681B78D6
:1053E000002B00D18BE07B681800FAF797FE0300D2
:1053F0007B6607E07B6E013B7B667A687B6ED31829
:1054000000221A707B6E002B0DD07B6E013B7A68F8
:10541000D3181B780D2BEDD07B6E013B7A68D31827
:105420001B780A2BE6D0384A7B6811001800FAF77F
:105430006BFE031E0ED10C243B195021180007F0FF
:1054400053FC3B191800FFF757FF304B1800FFF7CC
:1054500053FF55E02E4A7B6811001800FAF754FEFE
:10546000031E02D1FFF79EFF4AE02A4A7B68110023
:105470001800FAF749FE031E04D1274B1800FFF766
:105480003BFF3DE0254A7B6811001800FAF73CFE1F
:10549000031E07D0224A7B6811001800FAF734FE79
:1054A000031E05D11F4B01221A7005F0F5FA27E003
:1054B00000233B665F243B1900221A703A196023CF
:1054C000F9187B68180000F007FB031E0FD03B198A
:1054D0001B78002B06D03A6E134B11001800FFF713
:1054E00024FF0DE0114B1800FFF706FF08E0012034
:1054F000FFF7BEFE0E4B1800FFF7FEFE00E0C046B1
:10550000BD461BB090BDC04648580208545802081A
:105510005858020860580208685802087058020873
:10552000785802082009002080580208885802088C
:105530009058020880B500AF084B00221A60084B53
:105540008022002118001BF0F9FC064B1800FFF721
:10555000D3FEFFF71BFFC046BD4680BD1C090020DF
:105560009C080020AC58020890B595B000AF00230D
:105570003B605D4B1B78002B39D005F02BFB05F011
:10558000BDFA031E08D105F0AFFA03001A0001238B
:105590005340DBB2002B0BD0534B00221A7005F0A6
:1055A00099FA524B1800FFF7A7FEFFF7EFFE98E0BD
:1055B0003A003B1D4021180019F03CFD031E00D0AD
:1055C0008CE03B68002B00D188E00023FB6409E0FD
:1055D0003A1DFB6CD3181B78180005F099FAFB6C88
:1055E0000133FB643B68FA6C9A42F1D376E03A00EF
:1055F0003B1D4021180019F01DFD031E00D06FE077
:105600003B68002B00D16BE00023BB6461E04720C6
:105610003B18391DBA6C8A1812781A703B181B781F
:10562000082B03D03B181B787F2B0DD1304B1B6808
:10563000002B4AD02E4B1B685A1E2D4B1A602D4B47
:105640001800FFF759FE40E04722BB181B780D2BCE
:1056500003D0BB181B780A2B16D1274B1800FFF775
:105660004BFE234B1B68002B0BD0214B1B68234A9E
:105670000021D154214B1800FFF7A0FE1C4B002243
:105680001A60FFF783FE21E047243B191B781800BE
:10569000FFF769FE164B1B687E2B09D8144B1B685D
:1056A000591C134A1160154A39190978D1540DE073
:1056B0000F4B00221A600220FFF7DAFD104B180092
:1056C000FFF71AFEFFF762FE00E0C046BB6C013335
:1056D000BB643B68BA6C9A4299D302E0C04600E0D2
:1056E000C046BD4615B090BD20090020C85802082C
:1056F0001C090020D8580208545802089C080020B1
:10570000DC5802080D488546FFF786FD0C480D4918
:105710000D4A002302E0D458C4500433C4188C420C
:10572000F9D30A4A0A4C002301E013600432A24272
:10573000FBD31BF0A9FCFEF7EDFAFEE700A000206A
:1057400000000020D402002058740208D802002073
:1057500094690020FEE780B582B000AF786006E073
:105760007B685A1C7A601B78180006F057F87B6833
:105770001B78002BF4D1C046C046BD4602B080BDA8
:1057800080B500AF034B1800FFF7E5FFC046BD46EC
:1057900080BDC046F458020880B584B000AF786080
:1057A000396044E07B685A1C7A600F217A181B78B4
:1057B00013707B181B785A1C264BD3181B781A00C1
:1057C00003231340012B03D17B181B78203302E005
:1057D0000F23FB181B780E22BA1813703B685A1C53
:1057E0003A600D217A181B7813707B181B785A1CAD
:1057F000184BD3181B781A0003231340012B03D135
:105800007B181B78203302E00D23FB181B780C213A
:105810007A1813700E203A187B1812781B789A4267
:1058200005D03B181A787B181B78D31A0DE07B68DB
:105830001B78002B03D03B681B78002BB2D17B6810
:105840001B781A003B681B78D31A1800BD4604B0B9
:1058500080BDC046FC6F020880B58AB000AF78609A
:10586000396000237B627B68002B07D13B683022C4
:105870001A703B68013300221A7051E01B217B181B
:105880007A68D20F1A707B181B78002B02D07B68C5
:105890005B4200E07B683B6215E03B6A0A2118002E
:1058A000FAF7DEFC0B00DAB27B6A591C79623032FF
:1058B000D1B20822BA18D1543B6A0A211800FAF76B
:1058C00049FC03003B623B6A002B02D07B6A0F2B32
:1058D000E3DD0023FB611B23FB181B78002B17D093
:1058E000FB695A1CFA611A003B689B182D221A703A
:1058F0000EE07B6A013B7B62FB695A1CFA611A006D
:105900003B689B180822B9187A6A8A1812781A70AC
:105910007B6A002BEDDCFB693A68D31800221A7011
:10592000BD460AB080BD90B585B000AF0200FB1D3A
:105930001A70FB1D1B780A211800FAF70BFC0300F4
:10594000DBB20A211800FAF78BFC0B00DBB2303314
:10595000DAB20C243B191A70FB1D1B780A211800BF
:10596000FAF77EFC0B00DBB23033DAB23B195A7027
:105970003B1900229A703B191800FFF7ECFEC04655
:10598000BD4605B090BD000080B588B000AF78601E
:1059900039600023FB617B68002B15D13B68302206
:1059A0001A703B68013300221A702DE07B680F22C9
:1059B0001A40FB69591CF9611549895C0C22BA1817
:1059C000D1547B681B097B607B68002B02D0FB698C
:1059D000082BEBDD0023BB610EE0FB69013BFB61A3
:1059E000BB695A1CBA611A003B689B180C22B91893
:1059F000FA698A1812781A70FB69002BEDDCBB6912
:105A00003A68D31800221A70BD4608B080BDC0465F
:105A1000946E020880B584B000AF7860396004E00D
:105A20007B681B685A1C7B681A607B681B681B7844
:105A3000202BF5D07B681B681B78092BF0D07B6886
:105A40001B681B785A1C234BD3181B781A0004239D
:105A5000134006D17B681B681B782D2B01D00023D7
:105A600033E00123FB607B681B681B782D2B07D17B
:105A700001235B42FB607B681B685A1C7B681A60D1
:105A80000023BB6010E0BA6813009B009B185B000A
:105A90001A007B681B681B78303BD318BB607B689F
:105AA0001B685A1C7B681A607B681B681B785A1C31
:105AB000084BD3181B781A0004231340E3D1BB68AA
:105AC000FA685A433B681A6001231800BD4604B0C7
:105AD00080BDC046FC6F020880B596B000AFF8608C
